{
  "_format": "hh3-artifact-1",
  "contractName": "STXEscrowFactory",
  "sourceName": "contracts/STXEscrowFactory.sol",
  "abi": [
    {
      "inputs": [
        {
          "internalType": "contract IERC20",
          "name": "accessToken",
          "type": "address"
        },
        {
          "internalType": "address",
          "name": "owner",
          "type": "address"
        },
        {
          "internalType": "uint32",
          "name": "rescueDelaySrc",
          "type": "uint32"
        },
        {
          "internalType": "uint32",
          "name": "rescueDelayDst",
          "type": "uint32"
        },
        {
          "internalType": "uint256",
          "name": "_creationFee",
          "type": "uint256"
        },
        {
          "internalType": "address",
          "name": "_treasury",
          "type": "address"
        },
        {
          "components": [
            {
              "internalType": "uint256",
              "name": "minConfirmations",
              "type": "uint256"
            },
            {
              "internalType": "uint256",
              "name": "dustThreshold",
              "type": "uint256"
            },
            {
              "internalType": "uint256",
              "name": "maxAmount",
              "type": "uint256"
            }
          ],
          "internalType": "struct STXEscrowFactory.StacksConfig",
          "name": "_stacksConfig",
          "type": "tuple"
        }
      ],
      "stateMutability": "nonpayable",
      "type": "constructor"
    },
    {
      "inputs": [],
      "name": "Create2EmptyBytecode",
      "type": "error"
    },
    {
      "inputs": [],
      "name": "FailedDeployment",
      "type": "error"
    },
    {
      "inputs": [],
      "name": "FeeTransferFailed",
      "type": "error"
    },
    {
      "inputs": [
        {
          "internalType": "uint256",
          "name": "balance",
          "type": "uint256"
        },
        {
          "internalType": "uint256",
          "name": "needed",
          "type": "uint256"
        }
      ],
      "name": "InsufficientBalance",
      "type": "error"
    },
    {
      "inputs": [],
      "name": "InsufficientEscrowBalance",
      "type": "error"
    },
    {
      "inputs": [],
      "name": "InvalidFeeAmount",
      "type": "error"
    },
    {
      "inputs": [],
      "name": "InvalidStacksAddress",
      "type": "error"
    },
    {
      "inputs": [],
      "name": "InvalidStacksAmount",
      "type": "error"
    },
    {
      "inputs": [
        {
          "internalType": "address",
          "name": "owner",
          "type": "address"
        }
      ],
      "name": "OwnableInvalidOwner",
      "type": "error"
    },
    {
      "inputs": [
        {
          "internalType": "address",
          "name": "account",
          "type": "address"
        }
      ],
      "name": "OwnableUnauthorizedAccount",
      "type": "error"
    },
    {
      "inputs": [
        {
          "internalType": "address",
          "name": "token",
          "type": "address"
        }
      ],
      "name": "SafeERC20FailedOperation",
      "type": "error"
    },
    {
      "anonymous": false,
      "inputs": [
        {
          "indexed": false,
          "internalType": "uint256",
          "name": "oldFee",
          "type": "uint256"
        },
        {
          "indexed": false,
          "internalType": "uint256",
          "name": "newFee",
          "type": "uint256"
        }
      ],
      "name": "CreationFeeUpdated",
      "type": "event"
    },
    {
      "anonymous": false,
      "inputs": [
        {
          "indexed": false,
          "internalType": "address",
          "name": "escrow",
          "type": "address"
        },
        {
          "indexed": false,
          "internalType": "bytes32",
          "name": "hashlock",
          "type": "bytes32"
        },
        {
          "indexed": false,
          "internalType": "Address",
          "name": "taker",
          "type": "uint256"
        },
        {
          "indexed": true,
          "internalType": "address",
          "name": "creator",
          "type": "address"
        }
      ],
      "name": "DstEscrowCreated",
      "type": "event"
    },
    {
      "anonymous": false,
      "inputs": [
        {
          "indexed": true,
          "internalType": "address",
          "name": "previousOwner",
          "type": "address"
        },
        {
          "indexed": true,
          "internalType": "address",
          "name": "newOwner",
          "type": "address"
        }
      ],
      "name": "OwnershipTransferred",
      "type": "event"
    },
    {
      "anonymous": false,
      "inputs": [
        {
          "indexed": false,
          "internalType": "address",
          "name": "escrow",
          "type": "address"
        },
        {
          "indexed": false,
          "internalType": "bytes32",
          "name": "hashlock",
          "type": "bytes32"
        },
        {
          "indexed": false,
          "internalType": "Address",
          "name": "maker",
          "type": "uint256"
        },
        {
          "indexed": true,
          "internalType": "address",
          "name": "creator",
          "type": "address"
        }
      ],
      "name": "SrcEscrowCreated",
      "type": "event"
    },
    {
      "anonymous": false,
      "inputs": [
        {
          "components": [
            {
              "internalType": "uint256",
              "name": "minConfirmations",
              "type": "uint256"
            },
            {
              "internalType": "uint256",
              "name": "dustThreshold",
              "type": "uint256"
            },
            {
              "internalType": "uint256",
              "name": "maxAmount",
              "type": "uint256"
            }
          ],
          "indexed": false,
          "internalType": "struct STXEscrowFactory.StacksConfig",
          "name": "config",
          "type": "tuple"
        }
      ],
      "name": "StacksConfigUpdated",
      "type": "event"
    },
    {
      "anonymous": false,
      "inputs": [
        {
          "indexed": false,
          "internalType": "address",
          "name": "oldTreasury",
          "type": "address"
        },
        {
          "indexed": false,
          "internalType": "address",
          "name": "newTreasury",
          "type": "address"
        }
      ],
      "name": "TreasuryUpdated",
      "type": "event"
    },
    {
      "inputs": [],
      "name": "ACCESS_TOKEN",
      "outputs": [
        {
          "internalType": "contract IERC20",
          "name": "",
          "type": "address"
        }
      ],
      "stateMutability": "view",
      "type": "function"
    },
    {
      "inputs": [],
      "name": "STX_ESCROW_DST_IMPLEMENTATION",
      "outputs": [
        {
          "internalType": "address",
          "name": "",
          "type": "address"
        }
      ],
      "stateMutability": "view",
      "type": "function"
    },
    {
      "inputs": [],
      "name": "STX_ESCROW_SRC_IMPLEMENTATION",
      "outputs": [
        {
          "internalType": "address",
          "name": "",
          "type": "address"
        }
      ],
      "stateMutability": "view",
      "type": "function"
    },
    {
      "inputs": [
        {
          "components": [
            {
              "internalType": "bytes32",
              "name": "orderHash",
              "type": "bytes32"
            },
            {
              "internalType": "bytes32",
              "name": "hashlock",
              "type": "bytes32"
            },
            {
              "internalType": "Address",
              "name": "maker",
              "type": "uint256"
            },
            {
              "internalType": "Address",
              "name": "taker",
              "type": "uint256"
            },
            {
              "internalType": "Address",
              "name": "token",
              "type": "uint256"
            },
            {
              "internalType": "uint256",
              "name": "amount",
              "type": "uint256"
            },
            {
              "internalType": "uint256",
              "name": "safetyDeposit",
              "type": "uint256"
            },
            {
              "internalType": "Timelocks",
              "name": "timelocks",
              "type": "uint256"
            }
          ],
          "internalType": "struct IBaseEscrow.Immutables",
          "name": "immutables",
          "type": "tuple"
        }
      ],
      "name": "addressOfEscrowDst",
      "outputs": [
        {
          "internalType": "address",
          "name": "",
          "type": "address"
        }
      ],
      "stateMutability": "view",
      "type": "function"
    },
    {
      "inputs": [
        {
          "components": [
            {
              "internalType": "bytes32",
              "name": "orderHash",
              "type": "bytes32"
            },
            {
              "internalType": "bytes32",
              "name": "hashlock",
              "type": "bytes32"
            },
            {
              "internalType": "Address",
              "name": "maker",
              "type": "uint256"
            },
            {
              "internalType": "Address",
              "name": "taker",
              "type": "uint256"
            },
            {
              "internalType": "Address",
              "name": "token",
              "type": "uint256"
            },
            {
              "internalType": "uint256",
              "name": "amount",
              "type": "uint256"
            },
            {
              "internalType": "uint256",
              "name": "safetyDeposit",
              "type": "uint256"
            },
            {
              "internalType": "Timelocks",
              "name": "timelocks",
              "type": "uint256"
            }
          ],
          "internalType": "struct IBaseEscrow.Immutables",
          "name": "immutables",
          "type": "tuple"
        }
      ],
      "name": "addressOfEscrowSrc",
      "outputs": [
        {
          "internalType": "address",
          "name": "",
          "type": "address"
        }
      ],
      "stateMutability": "view",
      "type": "function"
    },
    {
      "inputs": [
        {
          "components": [
            {
              "internalType": "bytes32",
              "name": "orderHash",
              "type": "bytes32"
            },
            {
              "internalType": "bytes32",
              "name": "hashlock",
              "type": "bytes32"
            },
            {
              "internalType": "Address",
              "name": "maker",
              "type": "uint256"
            },
            {
              "internalType": "Address",
              "name": "taker",
              "type": "uint256"
            },
            {
              "internalType": "Address",
              "name": "token",
              "type": "uint256"
            },
            {
              "internalType": "uint256",
              "name": "amount",
              "type": "uint256"
            },
            {
              "internalType": "uint256",
              "name": "safetyDeposit",
              "type": "uint256"
            },
            {
              "internalType": "Timelocks",
              "name": "timelocks",
              "type": "uint256"
            }
          ],
          "internalType": "struct IBaseEscrow.Immutables",
          "name": "immutables",
          "type": "tuple"
        }
      ],
      "name": "createDstEscrow",
      "outputs": [],
      "stateMutability": "payable",
      "type": "function"
    },
    {
      "inputs": [
        {
          "components": [
            {
              "internalType": "bytes32",
              "name": "orderHash",
              "type": "bytes32"
            },
            {
              "internalType": "bytes32",
              "name": "hashlock",
              "type": "bytes32"
            },
            {
              "internalType": "Address",
              "name": "maker",
              "type": "uint256"
            },
            {
              "internalType": "Address",
              "name": "taker",
              "type": "uint256"
            },
            {
              "internalType": "Address",
              "name": "token",
              "type": "uint256"
            },
            {
              "internalType": "uint256",
              "name": "amount",
              "type": "uint256"
            },
            {
              "internalType": "uint256",
              "name": "safetyDeposit",
              "type": "uint256"
            },
            {
              "internalType": "Timelocks",
              "name": "timelocks",
              "type": "uint256"
            }
          ],
          "internalType": "struct IBaseEscrow.Immutables",
          "name": "immutables",
          "type": "tuple"
        }
      ],
      "name": "createSrcEscrow",
      "outputs": [],
      "stateMutability": "payable",
      "type": "function"
    },
    {
      "inputs": [],
      "name": "creationFee",
      "outputs": [
        {
          "internalType": "uint256",
          "name": "",
          "type": "uint256"
        }
      ],
      "stateMutability": "view",
      "type": "function"
    },
    {
      "inputs": [],
      "name": "owner",
      "outputs": [
        {
          "internalType": "address",
          "name": "",
          "type": "address"
        }
      ],
      "stateMutability": "view",
      "type": "function"
    },
    {
      "inputs": [],
      "name": "renounceOwnership",
      "outputs": [],
      "stateMutability": "nonpayable",
      "type": "function"
    },
    {
      "inputs": [
        {
          "internalType": "uint256",
          "name": "newFee",
          "type": "uint256"
        }
      ],
      "name": "setCreationFee",
      "outputs": [],
      "stateMutability": "nonpayable",
      "type": "function"
    },
    {
      "inputs": [
        {
          "components": [
            {
              "internalType": "uint256",
              "name": "minConfirmations",
              "type": "uint256"
            },
            {
              "internalType": "uint256",
              "name": "dustThreshold",
              "type": "uint256"
            },
            {
              "internalType": "uint256",
              "name": "maxAmount",
              "type": "uint256"
            }
          ],
          "internalType": "struct STXEscrowFactory.StacksConfig",
          "name": "newConfig",
          "type": "tuple"
        }
      ],
      "name": "setStacksConfig",
      "outputs": [],
      "stateMutability": "nonpayable",
      "type": "function"
    },
    {
      "inputs": [
        {
          "internalType": "address",
          "name": "newTreasury",
          "type": "address"
        }
      ],
      "name": "setTreasury",
      "outputs": [],
      "stateMutability": "nonpayable",
      "type": "function"
    },
    {
      "inputs": [],
      "name": "stacksConfig",
      "outputs": [
        {
          "internalType": "uint256",
          "name": "minConfirmations",
          "type": "uint256"
        },
        {
          "internalType": "uint256",
          "name": "dustThreshold",
          "type": "uint256"
        },
        {
          "internalType": "uint256",
          "name": "maxAmount",
          "type": "uint256"
        }
      ],
      "stateMutability": "view",
      "type": "function"
    },
    {
      "inputs": [
        {
          "internalType": "address",
          "name": "newOwner",
          "type": "address"
        }
      ],
      "name": "transferOwnership",
      "outputs": [],
      "stateMutability": "nonpayable",
      "type": "function"
    },
    {
      "inputs": [],
      "name": "treasury",
      "outputs": [
        {
          "internalType": "address",
          "name": "",
          "type": "address"
        }
      ],
      "stateMutability": "view",
      "type": "function"
    }
  ],
  "bytecode": "0x61012060405234801562000011575f80fd5b506040516200340b3803806200340b833981016040819052620000349162000300565b856001600160a01b0381166200006357604051631e4fbdf760e01b81525f600482015260240160405180910390fd5b6200006e8162000264565b506001600160a01b03878116610100526001849055600280546001600160a01b031916918416919091179055805160035560208101516004556040808201516005555185908890620000c090620002b3565b63ffffffff90921682526001600160a01b03166020820152604001604051809103905ff080158015620000f5573d5f803e3d5ffd5b506001600160a01b0316608052604051849088906200011490620002c1565b63ffffffff90921682526001600160a01b03166020820152604001604051809103905ff08015801562000149573d5f803e3d5ffd5b506001600160a01b031660a052608051620001d390604080517f3d602d80600a3d3981f3363d3d373d3d3d363d7300000000000000000000000060208083019190915260609390931b6001600160601b03191660348201526e5af43d82803e903d91602b57fd5bf360881b6048820152815160378183030181526057909101909152805191012090565b60c05260a0516200025390604080517f3d602d80600a3d3981f3363d3d373d3d3d363d7300000000000000000000000060208083019190915260609390931b6001600160601b03191660348201526e5af43d82803e903d91602b57fd5bf360881b6048820152815160378183030181526057909101909152805191012090565b60e05250620003e795505050505050565b5f80546001600160a01b038381166001600160a01b0319831681178455604051919092169283917f8be0079c531659141344cd1fd0a4f28419497f9722a3daafe3b4186f6b6457e09190a35050565b61116e80620010f983390190565b6111a4806200226783390190565b6001600160a01b0381168114620002e4575f80fd5b50565b805163ffffffff81168114620002fb575f80fd5b919050565b5f805f805f805f87890361012081121562000319575f80fd5b88516200032681620002cf565b60208a01519098506200033981620002cf565b96506200034960408a01620002e7565b95506200035960608a01620002e7565b94506080890151935060a08901516200037281620002cf565b9250606060bf198201121562000386575f80fd5b50604051606081016001600160401b0381118282101715620003b657634e487b7160e01b5f52604160045260245ffd5b806040525060c0890151815260e0890151602082015261010089015160408201528091505092959891949750929550565b60805160a05160c05160e05161010051610cb1620004485f395f61015401525f81816103a101526104e601525f818161057e0152818161076101526107b401525f818161010401526107db01525f818161019c01526108010152610cb15ff3fe6080604052600436106100ef575f3560e01c8063b7d8622511610087578063dce0b4e411610057578063dce0b4e4146102b6578063f0f44260146102d9578063f2fde38b146102f8578063fb6bd47e14610317575f80fd5b8063b7d8622514610246578063be58e91c14610265578063c3a2884114610284578063daf50b8514610297575f80fd5b806361d027b3116100c257806361d027b3146101be578063715018a6146101dd5780638da5cb5b146101f1578063ab321c811461020d575f80fd5b806331f0d252146100f35780633eb5002a146101435780634579d04b14610176578063577984991461018b575b5f80fd5b3480156100fe575f80fd5b506101267f000000000000000000000000000000000000000000000000000000000000000081565b6040516001600160a01b0390911681526020015b60405180910390f35b34801561014e575f80fd5b506101267f000000000000000000000000000000000000000000000000000000000000000081565b610189610184366004610b5e565b610336565b005b348015610196575f80fd5b506101267f000000000000000000000000000000000000000000000000000000000000000081565b3480156101c9575f80fd5b50600254610126906001600160a01b031681565b3480156101e8575f80fd5b50610189610454565b3480156101fc575f80fd5b505f546001600160a01b0316610126565b348015610218575f80fd5b5060035460045460055461022b92919083565b6040805193845260208401929092529082015260600161013a565b348015610251575f80fd5b50610189610260366004610b75565b610467565b348015610270575f80fd5b5061012661027f366004610b5e565b6104b5565b610189610292366004610b5e565b610513565b3480156102a2575f80fd5b506101896102b1366004610b8c565b610626565b3480156102c1575f80fd5b506102cb60015481565b60405190815260200161013a565b3480156102e4575f80fd5b506101896102f3366004610b9c565b61068c565b348015610303575f80fd5b50610189610312366004610b9c565b6106ee565b348015610322575f80fd5b50610126610331366004610b5e565b610730565b60808101355f6001600160a01b03821615610355578260c00135610367565b61036760c084013560a0850135610bc2565b90505f600154826103789190610bc2565b905080341461039a576040516334f5151d60e01b815260040160405180910390fd5b5f6103c6857f000000000000000000000000000000000000000000000000000000000000000085610786565b90506001600160a01b038416156103f0576103f06001600160a01b038516338360a08901356108a7565b6103f8610907565b604080516001600160a01b0383168152602080880135908201526060808801359282019290925233917f518f052b717cd6e4cf0abca59109d2531d264ce8e86d81e900110a4eacdee10691015b60405180910390a25050505050565b61045c61099a565b6104655f6109c6565b565b61046f61099a565b600180549082905560408051828152602081018490527f5de302eeb1c80d4fb0c0953b692353f09ddf431411b8eb2034d5e8576956191291015b60405180910390a15050565b5f806104c636849003840184610be1565b90506104d660e084013542610a15565b60e0820152610100812061050b817f000000000000000000000000000000000000000000000000000000000000000030610a2c565b949350505050565b60808101355f6001600160a01b03821615610532578260c00135610544565b61054460c084013560a0850135610bc2565b90505f600154826105559190610bc2565b9050803414610577576040516334f5151d60e01b815260040160405180910390fd5b5f6105a3857f000000000000000000000000000000000000000000000000000000000000000085610786565b90506001600160a01b038416156105cd576105cd6001600160a01b038516338360a08901356108a7565b6105d5610907565b604080516001600160a01b038316815260208088013590820152818701359181019190915233907f54a6401c7dbf5f93434419131a2b02390428924f99a62619b581ecc916e2614790606001610445565b61062e61099a565b803560038190556020808301356004819055604080850135600581905581519485529284019190915282810191909152517ff68c01c3a48db12a69e46d0e92004353f654b2be34f011912d589ee28d20c3c19181900360600190a150565b61069461099a565b600280546001600160a01b038381166001600160a01b031983168117909355604080519190921680825260208201939093527f4ab5be82436d353e61ca18726e984e561f5c1cc7c6d38b29d2553c790434705a91016104a9565b6106f661099a565b6001600160a01b03811661072457604051631e4fbdf760e01b81525f60048201526024015b60405180910390fd5b61072d816109c6565b50565b5f8061074136849003840184610be1565b905061075160e084013542610a15565b60e0820152610100812061050b817f000000000000000000000000000000000000000000000000000000000000000030610a2c565b5f8061079736869003860186610be1565b90506107a760e086013542610a15565b60e082015261010081205f7f000000000000000000000000000000000000000000000000000000000000000086146107ff577f0000000000000000000000000000000000000000000000000000000000000000610821565b7f00000000000000000000000000000000000000000000000000000000000000005b60405160200161087e9190733d602d80600a3d3981f3363d3d373d3d3d363d7360601b815260609190911b6bffffffffffffffffffffffff191660148201526e5af43d82803e903d91602b57fd5bf360881b602882015260370190565b604051602081830303815290604052905061089a858383610a5e565b93505050505b9392505050565b604080516001600160a01b0385811660248301528416604482015260648082018490528251808303909101815260849091019091526020810180516001600160e01b03166323b872dd60e01b179052610901908590610af2565b50505050565b5f60015411801561092257506002546001600160a01b031615155b15610465576002546001546040515f926001600160a01b031691908381818185875af1925050503d805f8114610973576040519150601f19603f3d011682016040523d82523d5f602084013e610978565b606091505b505090508061072d57604051634033e4e360e01b815260040160405180910390fd5b5f546001600160a01b031633146104655760405163118cdaa760e01b815233600482015260240161071b565b5f80546001600160a01b038381166001600160a01b0319831681178455604051919092169283917f8be0079c531659141344cd1fd0a4f28419497f9722a3daafe3b4186f6b6457e09190a35050565b6001600160e01b03821660e082901b175b92915050565b5f604051836040820152846020820152828152600b8101905060ff8153605590206001600160a01b0316949350505050565b5f83471015610a895760405163cf47918160e01b81524760048201526024810185905260440161071b565b81515f03610aaa57604051631328927760e21b815260040160405180910390fd5b8282516020840186f590503d151981151615610acb576040513d5f823e3d81fd5b6001600160a01b0381166108a05760405163b06ebf3d60e01b815260040160405180910390fd5b5f8060205f8451602086015f885af180610b11576040513d5f823e3d81fd5b50505f513d91508115610b28578060011415610b35565b6001600160a01b0384163b155b1561090157604051635274afe760e01b81526001600160a01b038516600482015260240161071b565b5f6101008284031215610b6f575f80fd5b50919050565b5f60208284031215610b85575f80fd5b5035919050565b5f60608284031215610b6f575f80fd5b5f60208284031215610bac575f80fd5b81356001600160a01b03811681146108a0575f80fd5b80820180821115610a2657634e487b7160e01b5f52601160045260245ffd5b5f610100808385031215610bf3575f80fd5b6040519081019067ffffffffffffffff82118183101715610c2257634e487b7160e01b5f52604160045260245ffd5b81604052833581526020840135602082015260408401356040820152606084013560608201526080840135608082015260a084013560a082015260c084013560c082015260e084013560e082015280925050509291505056fea26469706673582212200891cbe94b7536fc85d93d0cd1b7352443004eda0580b135fe8a2f643f31618e64736f6c634300081700333360c0527f3d602d80600a3d3981f3363d3d373d3d3d363d730000000000000000000000006101209081526001600160601b03193060601b16610134526e5af43d82803e903d91602b57fd5bf360881b610148526037610100819052610157604052902060e052348015610071575f80fd5b5060405161116e38038061116e833981016040819052610090916100ac565b63ffffffff90911660a0526001600160a01b03166080526100f7565b5f80604083850312156100bd575f80fd5b825163ffffffff811681146100d0575f80fd5b60208401519092506001600160a01b03811681146100ec575f80fd5b809150509250929050565b60805160a05160c05160e05161102f61013f5f395f818161016e015261092a01525f818161011e015261094b01525f81816102b401526105d601525f6102eb015261102f5ff3fe6080604052600436106100c2575f3560e01c80635260fac31161007c5780639dfa6763116100575780639dfa676314610246578063b08ae76c14610265578063ebfa20a914610284578063f56cd69c146102a3575f80fd5b80635260fac3146101dc5780635a11bb6d1461020857806390d3252f14610227575f80fd5b80630af97558146100cd57806323305703146100ee5780632dd310001461010d57806334862b6a1461015d5780633966527d1461019e5780634649088b146101bd575f80fd5b366100c957005b5f80fd5b3480156100d8575f80fd5b506100ec6100e7366004610c73565b6102d6565b005b3480156100f9575f80fd5b506100ec610108366004610c73565b610425565b348015610118575f80fd5b506101407f000000000000000000000000000000000000000000000000000000000000000081565b6040516001600160a01b0390911681526020015b60405180910390f35b348015610168575f80fd5b506101907f000000000000000000000000000000000000000000000000000000000000000081565b604051908152602001610154565b3480156101a9575f80fd5b506100ec6101b8366004610c9f565b610503565b3480156101c8575f80fd5b506100ec6101d7366004610d27565b610594565b3480156101e7575f80fd5b506101fb6101f6366004610d6f565b61066c565b6040516101549190610da8565b348015610213575f80fd5b506101fb610222366004610d6f565b610703565b348015610232575f80fd5b506100ec610241366004610dda565b61071b565b348015610251575f80fd5b506101fb610260366004610d6f565b6107da565b348015610270575f80fd5b506100ec61027f366004610c9f565b610879565b34801561028f575f80fd5b506101fb61029e366004610d6f565b6108fb565b3480156102ae575f80fd5b506101907f000000000000000000000000000000000000000000000000000000000000000081565b6040516370a0823160e01b81523360048201527f00000000000000000000000000000000000000000000000000000000000000006001600160a01b0316906370a0823190602401602060405180830381865afa158015610338573d5f803e3d5ffd5b505050506040513d601f19601f8201168201806040525081019061035c9190610dfc565b5f0361037b576040516348f5c3ed60e01b815260040160405180910390fd5b8061038581610917565b828280602001356103958361099a565b146103b35760405163abab6bd760e01b815260040160405180910390fd5b6103c260e08501356001610a0e565b804210156103e3576040516337bf561360e11b815260040160405180910390fd5b6103f260e08601356002610a0e565b804210610412576040516337bf561360e11b815260040160405180910390fd5b61041c8787610a4f565b50505050505050565b8061042f81610917565b8282806020013561043f8361099a565b1461045d5760405163abab6bd760e01b815260040160405180910390fd5b61046b60e08501355f610a0e565b8042101561048c576040516337bf561360e11b815260040160405180910390fd5b61049b60e08601356002610a0e565b8042106104bb576040516337bf561360e11b815260040160405180910390fd5b336001600160a01b03604088013516148015906104e55750336001600160a01b0360608801351614155b15610412576040516348f5c3ed60e01b815260040160405180910390fd5b8061050d81610917565b336001600160a01b036060840135161461053a576040516348f5c3ed60e01b815260040160405180910390fd5b5f858152600160205260409020610552848683610ea4565b50847f581dfdecbf49940447908dcd96ba0255b0510d6d1ecd0e78772c356f6446f58e8585604051610585929190610f5e565b60405180910390a25050505050565b80336001600160a01b03606083013516146105c2576040516348f5c3ed60e01b815260040160405180910390fd5b816105cc81610917565b60e083810135901c7f00000000000000000000000000000000000000000000000000000000000000000180421015610617576040516337bf561360e11b815260040160405180910390fd5b610622863387610aaf565b604080516001600160a01b0388168152602081018790527fc4474c2790e13695f6d2b6f1d8e164290b55370f87a542fd7711abe0a1bf40ac910160405180910390a1505050505050565b5f602081905290815260409020805461068490610e27565b80601f01602080910402602001604051908101604052809291908181526020018280546106b090610e27565b80156106fb5780601f106106d2576101008083540402835291602001916106fb565b820191905f5260205f20905b8154815290600101906020018083116106de57829003601f168201915b505050505081565b60016020525f90815260409020805461068490610e27565b80336001600160a01b0360408301351614610749576040516348f5c3ed60e01b815260040160405180910390fd5b8161075381610917565b61076260e08401356002610a0e565b80421015610783576040516337bf561360e11b815260040160405180910390fd5b61079a608085013560408601358660a00135610aaf565b6107ac60408501358560c00135610ae0565b6040517f6e3be9294e58d10b9c8053cfd5e09871b67e442fe394d6b0870d336b9df984a9905f90a150505050565b5f8181526001602052604090208054606091906107f690610e27565b80601f016020809104026020016040519081016040528092919081815260200182805461082290610e27565b801561086d5780601f106108445761010080835404028352916020019161086d565b820191905f5260205f20905b81548152906001019060200180831161085057829003601f168201915b50505050509050919050565b8061088381610917565b336001600160a01b03604084013516146108b0576040516348f5c3ed60e01b815260040160405180910390fd5b5f8581526020819052604090206108c8848683610ea4565b50847fac8b6890f5456d3939548eb20946788948974520faf69a852c57042c672c52f98585604051610585929190610f5e565b5f8181526020819052604090208054606091906107f690610e27565b5f61092182610b50565b90503061096f827f00000000000000000000000000000000000000000000000000000000000000007f0000000000000000000000000000000000000000000000000000000000000000610b65565b6001600160a01b03161461099657604051635134a42560e11b815260040160405180910390fd5b5050565b5f6002826040516020016109b091815260200190565b60408051601f19818403018152908290526109ca91610f8c565b602060405180830381855afa1580156109e5573d5f803e3d5ffd5b5050506040513d601f19601f82011682018060405250810190610a089190610dfc565b92915050565b5f8281836002811115610a2357610a23610fa7565b610a2e906020610fcf565b9050610a4663ffffffff83831c1660e084901c610fe6565b95945050505050565b610a66608082013560608301358360a00135610aaf565b610a7860408201358260c00135610ae0565b6040518281527fe346f5c97a360db5188bfa5d3ec5f0583abde420c6ba4d08b6cfe61addc171059060200160405180910390a15050565b6001600160a01b038316610acc57610ac78282610ae0565b505050565b610ac76001600160a01b0384168383610b97565b5f826001600160a01b0316826040515f6040518083038185875af1925050503d805f8114610b29576040519150601f19603f3d011682016040523d82523d5f602084013e610b2e565b606091505b5050905080610ac757604051638a0332d560e01b815260040160405180910390fd5b5f604051610100838237610100902092915050565b5f604051836040820152846020820152828152600b8101905060ff8153605590206001600160a01b0316949350505050565b604080516001600160a01b03841660248201526044808201849052825180830390910181526064909101909152602080820180516001600160e01b031663a9059cbb60e01b1781528251610ac793879390925f9283929183919082885af180610c05576040513d5f823e3d81fd5b50505f513d91508115610c1c578060011415610c29565b6001600160a01b0384163b155b15610c5657604051635274afe760e01b81526001600160a01b038516600482015260240160405180910390fd5b50505050565b5f6101008284031215610c6d575f80fd5b50919050565b5f806101208385031215610c85575f80fd5b82359150610c968460208501610c5c565b90509250929050565b5f805f806101408587031215610cb3575f80fd5b84359350602085013567ffffffffffffffff80821115610cd1575f80fd5b818701915087601f830112610ce4575f80fd5b813581811115610cf2575f80fd5b886020828501011115610d03575f80fd5b602083019550809450505050610d1c8660408701610c5c565b905092959194509250565b5f805f6101408486031215610d3a575f80fd5b83356001600160a01b0381168114610d50575f80fd5b925060208401359150610d668560408601610c5c565b90509250925092565b5f60208284031215610d7f575f80fd5b5035919050565b5f5b83811015610da0578181015183820152602001610d88565b50505f910152565b602081525f8251806020840152610dc6816040850160208701610d86565b601f01601f19169190910160400192915050565b5f6101008284031215610deb575f80fd5b610df58383610c5c565b9392505050565b5f60208284031215610e0c575f80fd5b5051919050565b634e487b7160e01b5f52604160045260245ffd5b600181811c90821680610e3b57607f821691505b602082108103610c6d57634e487b7160e01b5f52602260045260245ffd5b601f821115610ac757805f5260205f20601f840160051c81016020851015610e7e5750805b601f840160051c820191505b81811015610e9d575f8155600101610e8a565b5050505050565b67ffffffffffffffff831115610ebc57610ebc610e13565b610ed083610eca8354610e27565b83610e59565b5f601f841160018114610f01575f8515610eea5750838201355b5f19600387901b1c1916600186901b178355610e9d565b5f83815260208120601f198716915b82811015610f305786850135825560209485019460019092019101610f10565b5086821015610f4c575f1960f88860031b161c19848701351681555b505060018560011b0183555050505050565b60208152816020820152818360408301375f818301604090810191909152601f909201601f19160101919050565b5f8251610f9d818460208701610d86565b9190910192915050565b634e487b7160e01b5f52602160045260245ffd5b634e487b7160e01b5f52601160045260245ffd5b8082028115828204841417610a0857610a08610fbb565b80820180821115610a0857610a08610fbb56fea26469706673582212204eb39aa0caf2a38b132ccefcd8b894a46310893f411eb0f044a39428faec98e864736f6c634300081700333360c0527f3d602d80600a3d3981f3363d3d373d3d3d363d730000000000000000000000006101209081526001600160601b03193060601b16610134526e5af43d82803e903d91602b57fd5bf360881b610148526037610100819052610157604052902060e052348015610071575f80fd5b506040516111a43803806111a4833981016040819052610090916100ac565b63ffffffff90911660a0526001600160a01b03166080526100f7565b5f80604083850312156100bd575f80fd5b825163ffffffff811681146100d0575f80fd5b60208401519092506001600160a01b03811681146100ec575f80fd5b809150509250929050565b60805160a05160c05160e05161106561013f5f395f818161016e015261096001525f818161011e015261098101525f81816102b401526105f101525f6102eb01526110655ff3fe6080604052600436106100c2575f3560e01c80635260fac31161007c5780639dfa6763116100575780639dfa676314610246578063b08ae76c14610265578063ebfa20a914610284578063f56cd69c146102a3575f80fd5b80635260fac3146101dc5780635a11bb6d1461020857806390d3252f14610227575f80fd5b80630af97558146100cd57806323305703146100ee5780632dd310001461010d57806334862b6a1461015d5780633966527d1461019e5780634649088b146101bd575f80fd5b366100c957005b5f80fd5b3480156100d8575f80fd5b506100ec6100e7366004610ca9565b6102d6565b005b3480156100f9575f80fd5b506100ec610108366004610ca9565b610425565b348015610118575f80fd5b506101407f000000000000000000000000000000000000000000000000000000000000000081565b6040516001600160a01b0390911681526020015b60405180910390f35b348015610168575f80fd5b506101907f000000000000000000000000000000000000000000000000000000000000000081565b604051908152602001610154565b3480156101a9575f80fd5b506100ec6101b8366004610cd5565b610503565b3480156101c8575f80fd5b506100ec6101d7366004610d5d565b6105af565b3480156101e7575f80fd5b506101fb6101f6366004610da5565b610687565b6040516101549190610dde565b348015610213575f80fd5b506101fb610222366004610da5565b61071e565b348015610232575f80fd5b506100ec610241366004610e10565b610736565b348015610251575f80fd5b506101fb610260366004610da5565b6107f5565b348015610270575f80fd5b506100ec61027f366004610cd5565b610894565b34801561028f575f80fd5b506101fb61029e366004610da5565b610931565b3480156102ae575f80fd5b506101907f000000000000000000000000000000000000000000000000000000000000000081565b6040516370a0823160e01b81523360048201527f00000000000000000000000000000000000000000000000000000000000000006001600160a01b0316906370a0823190602401602060405180830381865afa158015610338573d5f803e3d5ffd5b505050506040513d601f19601f8201168201806040525081019061035c9190610e32565b5f0361037b576040516348f5c3ed60e01b815260040160405180910390fd5b806103858161094d565b82828060200135610395836109d0565b146103b35760405163abab6bd760e01b815260040160405180910390fd5b6103c260e08501356001610a44565b804210156103e3576040516337bf561360e11b815260040160405180910390fd5b6103f260e08601356002610a44565b804210610412576040516337bf561360e11b815260040160405180910390fd5b61041c8787610a85565b50505050505050565b8061042f8161094d565b8282806020013561043f836109d0565b1461045d5760405163abab6bd760e01b815260040160405180910390fd5b61046b60e08501355f610a44565b8042101561048c576040516337bf561360e11b815260040160405180910390fd5b61049b60e08601356002610a44565b8042106104bb576040516337bf561360e11b815260040160405180910390fd5b336001600160a01b03604088013516148015906104e55750336001600160a01b0360608801351614155b15610412576040516348f5c3ed60e01b815260040160405180910390fd5b8061050d8161094d565b336001600160a01b03604084013516148015906105375750336001600160a01b0360608401351614155b15610555576040516348f5c3ed60e01b815260040160405180910390fd5b5f85815260208190526040902061056d848683610eda565b50847f581dfdecbf49940447908dcd96ba0255b0510d6d1ecd0e78772c356f6446f58e85856040516105a0929190610f94565b60405180910390a25050505050565b80336001600160a01b03606083013516146105dd576040516348f5c3ed60e01b815260040160405180910390fd5b816105e78161094d565b60e083810135901c7f00000000000000000000000000000000000000000000000000000000000000000180421015610632576040516337bf561360e11b815260040160405180910390fd5b61063d863387610ae5565b604080516001600160a01b0388168152602081018790527fc4474c2790e13695f6d2b6f1d8e164290b55370f87a542fd7711abe0a1bf40ac910160405180910390a1505050505050565b60016020525f90815260409020805461069f90610e5d565b80601f01602080910402602001604051908101604052809291908181526020018280546106cb90610e5d565b80156107165780601f106106ed57610100808354040283529160200191610716565b820191905f5260205f20905b8154815290600101906020018083116106f957829003601f168201915b505050505081565b5f602081905290815260409020805461069f90610e5d565b80336001600160a01b0360608301351614610764576040516348f5c3ed60e01b815260040160405180910390fd5b8161076e8161094d565b61077d60e08401356002610a44565b8042101561079e576040516337bf561360e11b815260040160405180910390fd5b6107b5608085013560608601358660a00135610ae5565b6107c760608501358560c00135610b16565b6040517f6e3be9294e58d10b9c8053cfd5e09871b67e442fe394d6b0870d336b9df984a9905f90a150505050565b5f81815260208190526040902080546060919061081190610e5d565b80601f016020809104026020016040519081016040528092919081815260200182805461083d90610e5d565b80156108885780601f1061085f57610100808354040283529160200191610888565b820191905f5260205f20905b81548152906001019060200180831161086b57829003601f168201915b50505050509050919050565b8061089e8161094d565b336001600160a01b03604084013516148015906108c85750336001600160a01b0360608401351614155b156108e6576040516348f5c3ed60e01b815260040160405180910390fd5b5f8581526001602052604090206108fe848683610eda565b50847fac8b6890f5456d3939548eb20946788948974520faf69a852c57042c672c52f985856040516105a0929190610f94565b5f81815260016020526040902080546060919061081190610e5d565b5f61095782610b86565b9050306109a5827f00000000000000000000000000000000000000000000000000000000000000007f0000000000000000000000000000000000000000000000000000000000000000610b9b565b6001600160a01b0316146109cc57604051635134a42560e11b815260040160405180910390fd5b5050565b5f6002826040516020016109e691815260200190565b60408051601f1981840301815290829052610a0091610fc2565b602060405180830381855afa158015610a1b573d5f803e3d5ffd5b5050506040513d601f19601f82011682018060405250810190610a3e9190610e32565b92915050565b5f8281836002811115610a5957610a59610fdd565b610a64906020611005565b9050610a7c63ffffffff83831c1660e084901c61101c565b95945050505050565b610a9c608082013560408301358360a00135610ae5565b610aae60608201358260c00135610b16565b6040518281527fe346f5c97a360db5188bfa5d3ec5f0583abde420c6ba4d08b6cfe61addc171059060200160405180910390a15050565b6001600160a01b038316610b0257610afd8282610b16565b505050565b610afd6001600160a01b0384168383610bcd565b5f826001600160a01b0316826040515f6040518083038185875af1925050503d805f8114610b5f576040519150601f19603f3d011682016040523d82523d5f602084013e610b64565b606091505b5050905080610afd57604051638a0332d560e01b815260040160405180910390fd5b5f604051610100838237610100902092915050565b5f604051836040820152846020820152828152600b8101905060ff8153605590206001600160a01b0316949350505050565b604080516001600160a01b03841660248201526044808201849052825180830390910181526064909101909152602080820180516001600160e01b031663a9059cbb60e01b1781528251610afd93879390925f9283929183919082885af180610c3b576040513d5f823e3d81fd5b50505f513d91508115610c52578060011415610c5f565b6001600160a01b0384163b155b15610c8c57604051635274afe760e01b81526001600160a01b038516600482015260240160405180910390fd5b50505050565b5f6101008284031215610ca3575f80fd5b50919050565b5f806101208385031215610cbb575f80fd5b82359150610ccc8460208501610c92565b90509250929050565b5f805f806101408587031215610ce9575f80fd5b84359350602085013567ffffffffffffffff80821115610d07575f80fd5b818701915087601f830112610d1a575f80fd5b813581811115610d28575f80fd5b886020828501011115610d39575f80fd5b602083019550809450505050610d528660408701610c92565b905092959194509250565b5f805f6101408486031215610d70575f80fd5b83356001600160a01b0381168114610d86575f80fd5b925060208401359150610d9c8560408601610c92565b90509250925092565b5f60208284031215610db5575f80fd5b5035919050565b5f5b83811015610dd6578181015183820152602001610dbe565b50505f910152565b602081525f8251806020840152610dfc816040850160208701610dbc565b601f01601f19169190910160400192915050565b5f6101008284031215610e21575f80fd5b610e2b8383610c92565b9392505050565b5f60208284031215610e42575f80fd5b5051919050565b634e487b7160e01b5f52604160045260245ffd5b600181811c90821680610e7157607f821691505b602082108103610ca357634e487b7160e01b5f52602260045260245ffd5b601f821115610afd57805f5260205f20601f840160051c81016020851015610eb45750805b601f840160051c820191505b81811015610ed3575f8155600101610ec0565b5050505050565b67ffffffffffffffff831115610ef257610ef2610e49565b610f0683610f008354610e5d565b83610e8f565b5f601f841160018114610f37575f8515610f205750838201355b5f19600387901b1c1916600186901b178355610ed3565b5f83815260208120601f198716915b82811015610f665786850135825560209485019460019092019101610f46565b5086821015610f82575f1960f88860031b161c19848701351681555b505060018560011b0183555050505050565b60208152816020820152818360408301375f818301604090810191909152601f909201601f19160101919050565b5f8251610fd3818460208701610dbc565b9190910192915050565b634e487b7160e01b5f52602160045260245ffd5b634e487b7160e01b5f52601160045260245ffd5b8082028115828204841417610a3e57610a3e610ff1565b80820180821115610a3e57610a3e610ff156fea2646970667358221220f70a6b9776c8420f302bbeedd17ac6ef4b7a8ca33f4e0183111f428888e0e22e64736f6c63430008170033",
  "linkReferences": {},
  "deployedLinkReferences": {},
  "immutableReferences": {
    "1722": [
      {
        "length": 32,
        "start": 412
      },
      {
        "length": 32,
        "start": 2049
      }
    ],
    "1725": [
      {
        "length": 32,
        "start": 260
      },
      {
        "length": 32,
        "start": 2011
      }
    ],
    "1728": [
      {
        "length": 32,
        "start": 1406
      },
      {
        "length": 32,
        "start": 1889
      },
      {
        "length": 32,
        "start": 1972
      }
    ],
    "1731": [
      {
        "length": 32,
        "start": 929
      },
      {
        "length": 32,
        "start": 1254
      }
    ],
    "1735": [
      {
        "length": 32,
        "start": 340
      }
    ]
  },
  "inputSourceName": "project/contracts/STXEscrowFactory.sol",
  "buildInfoId": "solc-0_8_23-7fe7ce81efca242717e1068626727f9b4a2f383a"
}