{
  "_format": "hh3-artifact-1",
  "contractName": "Resolver",
  "sourceName": "contracts/Resolver.sol",
  "abi": [
    {
      "inputs": [
        {
          "internalType": "address",
          "name": "factoryAddress",
          "type": "address"
        },
        {
          "internalType": "address",
          "name": "initialOwner",
          "type": "address"
        }
      ],
      "stateMutability": "nonpayable",
      "type": "constructor"
    },
    {
      "inputs": [],
      "name": "InsufficientValue",
      "type": "error"
    },
    {
      "inputs": [],
      "name": "InvalidLength",
      "type": "error"
    },
    {
      "inputs": [],
      "name": "LengthMismatch",
      "type": "error"
    },
    {
      "inputs": [
        {
          "internalType": "address",
          "name": "owner",
          "type": "address"
        }
      ],
      "name": "OwnableInvalidOwner",
      "type": "error"
    },
    {
      "inputs": [
        {
          "internalType": "address",
          "name": "account",
          "type": "address"
        }
      ],
      "name": "OwnableUnauthorizedAccount",
      "type": "error"
    },
    {
      "anonymous": false,
      "inputs": [
        {
          "indexed": true,
          "internalType": "address",
          "name": "escrow",
          "type": "address"
        },
        {
          "indexed": true,
          "internalType": "bytes32",
          "name": "orderHash",
          "type": "bytes32"
        },
        {
          "indexed": false,
          "internalType": "bytes32",
          "name": "hashlock",
          "type": "bytes32"
        }
      ],
      "name": "DstEscrowDeployed",
      "type": "event"
    },
    {
      "anonymous": false,
      "inputs": [
        {
          "indexed": true,
          "internalType": "address",
          "name": "previousOwner",
          "type": "address"
        },
        {
          "indexed": true,
          "internalType": "address",
          "name": "newOwner",
          "type": "address"
        }
      ],
      "name": "OwnershipTransferred",
      "type": "event"
    },
    {
      "anonymous": false,
      "inputs": [
        {
          "indexed": true,
          "internalType": "address",
          "name": "escrow",
          "type": "address"
        }
      ],
      "name": "ResolverCancel",
      "type": "event"
    },
    {
      "anonymous": false,
      "inputs": [
        {
          "indexed": true,
          "internalType": "address",
          "name": "escrow",
          "type": "address"
        },
        {
          "indexed": false,
          "internalType": "bytes32",
          "name": "secret",
          "type": "bytes32"
        }
      ],
      "name": "ResolverWithdraw",
      "type": "event"
    },
    {
      "anonymous": false,
      "inputs": [
        {
          "indexed": true,
          "internalType": "address",
          "name": "escrow",
          "type": "address"
        },
        {
          "indexed": true,
          "internalType": "bytes32",
          "name": "orderHash",
          "type": "bytes32"
        },
        {
          "indexed": false,
          "internalType": "bytes32",
          "name": "hashlock",
          "type": "bytes32"
        }
      ],
      "name": "SrcEscrowDeployed",
      "type": "event"
    },
    {
      "inputs": [
        {
          "internalType": "address[]",
          "name": "targets",
          "type": "address[]"
        },
        {
          "internalType": "bytes[]",
          "name": "arguments",
          "type": "bytes[]"
        }
      ],
      "name": "arbitraryCalls",
      "outputs": [],
      "stateMutability": "nonpayable",
      "type": "function"
    },
    {
      "inputs": [
        {
          "internalType": "contract IEscrow",
          "name": "escrow",
          "type": "address"
        },
        {
          "components": [
            {
              "internalType": "bytes32",
              "name": "orderHash",
              "type": "bytes32"
            },
            {
              "internalType": "bytes32",
              "name": "hashlock",
              "type": "bytes32"
            },
            {
              "internalType": "Address",
              "name": "maker",
              "type": "uint256"
            },
            {
              "internalType": "Address",
              "name": "taker",
              "type": "uint256"
            },
            {
              "internalType": "Address",
              "name": "token",
              "type": "uint256"
            },
            {
              "internalType": "uint256",
              "name": "amount",
              "type": "uint256"
            },
            {
              "internalType": "uint256",
              "name": "safetyDeposit",
              "type": "uint256"
            },
            {
              "internalType": "Timelocks",
              "name": "timelocks",
              "type": "uint256"
            }
          ],
          "internalType": "struct IBaseEscrow.Immutables",
          "name": "immutables",
          "type": "tuple"
        }
      ],
      "name": "cancel",
      "outputs": [],
      "stateMutability": "nonpayable",
      "type": "function"
    },
    {
      "inputs": [
        {
          "components": [
            {
              "internalType": "bytes32",
              "name": "orderHash",
              "type": "bytes32"
            },
            {
              "internalType": "bytes32",
              "name": "hashlock",
              "type": "bytes32"
            },
            {
              "internalType": "Address",
              "name": "maker",
              "type": "uint256"
            },
            {
              "internalType": "Address",
              "name": "taker",
              "type": "uint256"
            },
            {
              "internalType": "Address",
              "name": "token",
              "type": "uint256"
            },
            {
              "internalType": "uint256",
              "name": "amount",
              "type": "uint256"
            },
            {
              "internalType": "uint256",
              "name": "safetyDeposit",
              "type": "uint256"
            },
            {
              "internalType": "Timelocks",
              "name": "timelocks",
              "type": "uint256"
            }
          ],
          "internalType": "struct IBaseEscrow.Immutables",
          "name": "dstImmutables",
          "type": "tuple"
        }
      ],
      "name": "deployDst",
      "outputs": [
        {
          "internalType": "address",
          "name": "escrow",
          "type": "address"
        }
      ],
      "stateMutability": "payable",
      "type": "function"
    },
    {
      "inputs": [
        {
          "components": [
            {
              "internalType": "bytes32",
              "name": "orderHash",
              "type": "bytes32"
            },
            {
              "internalType": "bytes32",
              "name": "hashlock",
              "type": "bytes32"
            },
            {
              "internalType": "Address",
              "name": "maker",
              "type": "uint256"
            },
            {
              "internalType": "Address",
              "name": "taker",
              "type": "uint256"
            },
            {
              "internalType": "Address",
              "name": "token",
              "type": "uint256"
            },
            {
              "internalType": "uint256",
              "name": "amount",
              "type": "uint256"
            },
            {
              "internalType": "uint256",
              "name": "safetyDeposit",
              "type": "uint256"
            },
            {
              "internalType": "Timelocks",
              "name": "timelocks",
              "type": "uint256"
            }
          ],
          "internalType": "struct IBaseEscrow.Immutables",
          "name": "immutables",
          "type": "tuple"
        }
      ],
      "name": "deploySrc",
      "outputs": [
        {
          "internalType": "address",
          "name": "escrow",
          "type": "address"
        }
      ],
      "stateMutability": "payable",
      "type": "function"
    },
    {
      "inputs": [],
      "name": "getFactory",
      "outputs": [
        {
          "internalType": "address",
          "name": "",
          "type": "address"
        }
      ],
      "stateMutability": "view",
      "type": "function"
    },
    {
      "inputs": [],
      "name": "owner",
      "outputs": [
        {
          "internalType": "address",
          "name": "",
          "type": "address"
        }
      ],
      "stateMutability": "view",
      "type": "function"
    },
    {
      "inputs": [],
      "name": "renounceOwnership",
      "outputs": [],
      "stateMutability": "nonpayable",
      "type": "function"
    },
    {
      "inputs": [
        {
          "internalType": "address",
          "name": "newOwner",
          "type": "address"
        }
      ],
      "name": "transferOwnership",
      "outputs": [],
      "stateMutability": "nonpayable",
      "type": "function"
    },
    {
      "inputs": [
        {
          "internalType": "contract IEscrow",
          "name": "escrow",
          "type": "address"
        },
        {
          "internalType": "bytes32",
          "name": "secret",
          "type": "bytes32"
        },
        {
          "components": [
            {
              "internalType": "bytes32",
              "name": "orderHash",
              "type": "bytes32"
            },
            {
              "internalType": "bytes32",
              "name": "hashlock",
              "type": "bytes32"
            },
            {
              "internalType": "Address",
              "name": "maker",
              "type": "uint256"
            },
            {
              "internalType": "Address",
              "name": "taker",
              "type": "uint256"
            },
            {
              "internalType": "Address",
              "name": "token",
              "type": "uint256"
            },
            {
              "internalType": "uint256",
              "name": "amount",
              "type": "uint256"
            },
            {
              "internalType": "uint256",
              "name": "safetyDeposit",
              "type": "uint256"
            },
            {
              "internalType": "Timelocks",
              "name": "timelocks",
              "type": "uint256"
            }
          ],
          "internalType": "struct IBaseEscrow.Immutables",
          "name": "immutables",
          "type": "tuple"
        }
      ],
      "name": "withdraw",
      "outputs": [],
      "stateMutability": "nonpayable",
      "type": "function"
    },
    {
      "inputs": [
        {
          "internalType": "address payable",
          "name": "to",
          "type": "address"
        },
        {
          "internalType": "uint256",
          "name": "amount",
          "type": "uint256"
        }
      ],
      "name": "withdrawETH",
      "outputs": [],
      "stateMutability": "nonpayable",
      "type": "function"
    },
    {
      "stateMutability": "payable",
      "type": "receive"
    }
  ],
  "bytecode": "0x60a0346100e457601f6110e038819003918201601f19168301916001600160401b038311848410176100e85780849260409485528339810103126100e4576020610048826100fc565b916001600160a01b0391829161005e91016100fc565b169182156100cc575f80546001600160a01b03198116851782556040519491908416907f8be0079c531659141344cd1fd0a4f28419497f9722a3daafe3b4186f6b6457e09080a316608052610fcf90816101118239608051818181610549015281816108900152610ac80152f35b604051631e4fbdf760e01b81525f6004820152602490fd5b5f80fd5b634e487b7160e01b5f52604160045260245ffd5b51906001600160a01b03821682036100e45756fe6080604052600436101561001a575b3615610018575f80fd5b005b5f3560e01c80631f3177ba146100b95780632c3c9a37146100b45780633272b433146100af5780634782f779146100aa578063715018a6146100a557806388cc58e4146100a05780638da5cb5b1461009b578063a4fc705a14610096578063b499a573146100915763f2fde38b0361000e57610bd6565b610a4f565b610904565b6108b4565b610846565b6107ac565b6106d1565b61043f565b6102eb565b6100f3565b9181601f840112156100ef5782359167ffffffffffffffff83116100ef576020808501948460051b0101116100ef57565b5f80fd5b346100ef576040807ffffffffffffffffffffffffffffffffffffffffffffffffffffffffffffffffc3601126100ef5767ffffffffffffffff600480358281116100ef576101459036906004016100be565b926024359081116100ef5761015e9036906004016100be565b9390610168610f49565b848203610243575f5b82811061017a57005b5f8061018f61018a848789610ce5565b610cfa565b8161019b858b88610d07565b91906101ab8d5180948193610d67565b03925af16101b7610dfb565b90156101c65750600101610171565b805186908990156101d957825160208401fd5b61023f9250519182917f08c379a0000000000000000000000000000000000000000000000000000000008352820160609060208152601560208201527f4172626974726172792063616c6c206661696c6564000000000000000000000060408201520190565b0390fd5b60046040517fff633a38000000000000000000000000000000000000000000000000000000008152fd5b73ffffffffffffffffffffffffffffffffffffffff8116036100ef57565b7fffffffffffffffffffffffffffffffffffffffffffffffffffffffffffffffbc6101009101126100ef57604490565b7ffffffffffffffffffffffffffffffffffffffffffffffffffffffffffffffffc6101009101126100ef57600490565b346100ef575f6101407ffffffffffffffffffffffffffffffffffffffffffffffffffffffffffffffffc3601126100ef576004356103288161026d565b60243573ffffffffffffffffffffffffffffffffffffffff6103493661028b565b92610352610f49565b1691823b156100ef576103db604051917f23305703000000000000000000000000000000000000000000000000000000008352836004840152602483019060e08091803584526020810135602085015260408101356040850152606081013560608501526080810135608085015260a081013560a085015260c081013560c08501520135910152565b5f816101248183875af1801561043a57610425575b506040519081527fc4129b0a2db5720f02969b201fe44030bb2f9c81a744c074bc576b9792a218c89080602081015b0390a280f35b610430919350610da1565b5f9161041f6103f0565b610e58565b6101007ffffffffffffffffffffffffffffffffffffffffffffffffffffffffffffffffc3601126100ef57610473366102bb565b61047b610f49565b6104853682610e63565b906104b74260e0830135907bffffffffffffffffffffffffffffffffffffffffffffffffffffffff9060e01b91161790565b60e08301908152604080517ffb6bd47e000000000000000000000000000000000000000000000000000000008152845160048201526020808601516024830152918501516044820152606085015160648201526080850151608482015260a085015160a482015260c085015160c4820152915160e4830152909173ffffffffffffffffffffffffffffffffffffffff917f00000000000000000000000000000000000000000000000000000000000000008316908461010481845afa93841561043a575f946106a0575b50803b156100ef57604080517fc3a288410000000000000000000000000000000000000000000000000000000081528651600482015260208701516024820152908601516044820152606086015160648201526080860151608482015260a086015160a482015260c086015160c482015260e09095015160e48601525f90859061010490829034905af193841561043a5761068394610687575b507f258d57c65e4a8f844f0cebb9cf97f40f909bfc7c0be7de6ac5586dc604aec1336040518061065960208535968816950135829190602083019252565b0390a360405173ffffffffffffffffffffffffffffffffffffffff90911681529081906020820190565b0390f35b8061069461069a92610da1565b806107a2565b5f61061b565b6106c391945060203d6020116106ca575b6106bb8183610dba565b810190610eda565b925f610581565b503d6106b1565b346100ef5760407ffffffffffffffffffffffffffffffffffffffffffffffffffffffffffffffffc3601126100ef575f8080806004356107108161026d565b610718610f49565b73ffffffffffffffffffffffffffffffffffffffff60243591165af161073c610dfb565b501561074457005b60646040517f08c379a000000000000000000000000000000000000000000000000000000000815260206004820152601360248201527f455448207472616e73666572206661696c6564000000000000000000000000006044820152fd5b5f9103126100ef57565b346100ef575f7ffffffffffffffffffffffffffffffffffffffffffffffffffffffffffffffffc3601126100ef576107e2610f49565b5f73ffffffffffffffffffffffffffffffffffffffff81547fffffffffffffffffffffffff000000000000000000000000000000000000000081168355167f8be0079c531659141344cd1fd0a4f28419497f9722a3daafe3b4186f6b6457e08280a3005b346100ef575f7ffffffffffffffffffffffffffffffffffffffffffffffffffffffffffffffffc3601126100ef57602060405173ffffffffffffffffffffffffffffffffffffffff7f0000000000000000000000000000000000000000000000000000000000000000168152f35b346100ef575f7ffffffffffffffffffffffffffffffffffffffffffffffffffffffffffffffffc3601126100ef57602073ffffffffffffffffffffffffffffffffffffffff5f5416604051908152f35b346100ef575f6101207ffffffffffffffffffffffffffffffffffffffffffffffffffffffffffffffffc3601126100ef576004356109418161026d565b6101007fffffffffffffffffffffffffffffffffffffffffffffffffffffffffffffffdc3601126100ef5773ffffffffffffffffffffffffffffffffffffffff9061098a610f49565b16803b156100ef576040517f90d3252f0000000000000000000000000000000000000000000000000000000081526109ff60048201602435815260443560208201526064356040820152608435606082015260a435608082015260c43560a082015260e43560c082015260e061010435910152565b5f816101048183865af1801561043a57610a3c575b507f1162d2a6ed18a28ab5bf9c93daf82d81af0275f343639e208bebc4273e3466ab8280a280f35b610a47919250610da1565b5f905f610a14565b6101007ffffffffffffffffffffffffffffffffffffffffffffffffffffffffffffffffc3601126100ef57610a83366102bb565b610a8b610f49565b6040517fbe58e91c00000000000000000000000000000000000000000000000000000000815273ffffffffffffffffffffffffffffffffffffffff7f000000000000000000000000000000000000000000000000000000000000000081169260208380610afb8460048301610eef565b0381875afa92831561043a575f93610bb5575b50833b156100ef575f60405180957f4579d04b0000000000000000000000000000000000000000000000000000000082528180610b4e8660048301610eef565b039134905af193841561043a5761068394610ba2575b507f1207398be21c6be9d65e2168886fffa0deacefb28f9401e3d85f6a605190a00b6040518061065960208535968816950135829190602083019252565b80610694610baf92610da1565b5f610b64565b610bcf91935060203d6020116106ca576106bb8183610dba565b915f610b0e565b346100ef5760207ffffffffffffffffffffffffffffffffffffffffffffffffffffffffffffffffc3601126100ef57600435610c118161026d565b610c19610f49565b73ffffffffffffffffffffffffffffffffffffffff809116908115610c88575f54827fffffffffffffffffffffffff00000000000000000000000000000000000000008216175f55167f8be0079c531659141344cd1fd0a4f28419497f9722a3daafe3b4186f6b6457e05f80a3005b60246040517f1e4fbdf70000000000000000000000000000000000000000000000000000000081525f6004820152fd5b7f4e487b71000000000000000000000000000000000000000000000000000000005f52603260045260245ffd5b9190811015610cf55760051b0190565b610cb8565b35610d048161026d565b90565b9190811015610cf55760051b810135907fffffffffffffffffffffffffffffffffffffffffffffffffffffffffffffffe1813603018212156100ef57019081359167ffffffffffffffff83116100ef5760200182360381136100ef579190565b908092918237015f815290565b7f4e487b71000000000000000000000000000000000000000000000000000000005f52604160045260245ffd5b67ffffffffffffffff8111610db557604052565b610d74565b90601f7fffffffffffffffffffffffffffffffffffffffffffffffffffffffffffffffe0910116810190811067ffffffffffffffff821117610db557604052565b3d15610e53573d9067ffffffffffffffff8211610db55760405191610e4860207fffffffffffffffffffffffffffffffffffffffffffffffffffffffffffffffe0601f8401160184610dba565b82523d5f602084013e565b606090565b6040513d5f823e3d90fd5b80929161010091829103126100ef5760405190810181811067ffffffffffffffff821117610db55760405260e0808294803584526020810135602085015260408101356040850152606081013560608501526080810135608085015260a081013560a085015260c081013560c08501520135910152565b908160209103126100ef5751610d048161026d565b610f479092919261010081019360e08091803584526020810135602085015260408101356040850152606081013560608501526080810135608085015260a081013560a085015260c081013560c08501520135910152565b565b73ffffffffffffffffffffffffffffffffffffffff5f54163303610f6957565b60246040517f118cdaa7000000000000000000000000000000000000000000000000000000008152336004820152fdfea2646970667358221220b890c896867b402b0cc9979bc35fe03c456e3f594b47adbd1c381e0068ec5bd964736f6c63430008170033",
  "linkReferences": {},
  "deployedLinkReferences": {},
  "immutableReferences": {
    "2701": [
      {
        "length": 32,
        "start": 1353
      },
      {
        "length": 32,
        "start": 2192
      },
      {
        "length": 32,
        "start": 2760
      }
    ]
  },
  "inputSourceName": "project/contracts/Resolver.sol",
  "buildInfoId": "solc-0_8_23-e1eb24826fac5efa153b6a93cf1aa3241f14418d"
}