{
  "_format": "hh3-artifact-1",
  "contractName": "Resolver",
  "sourceName": "contracts/Resolver.sol",
  "abi": [
    {
      "inputs": [
        {
          "internalType": "address",
          "name": "factoryAddress",
          "type": "address"
        },
        {
          "internalType": "address",
          "name": "initialOwner",
          "type": "address"
        }
      ],
      "stateMutability": "nonpayable",
      "type": "constructor"
    },
    {
      "inputs": [],
      "name": "InsufficientValue",
      "type": "error"
    },
    {
      "inputs": [],
      "name": "InvalidLength",
      "type": "error"
    },
    {
      "inputs": [],
      "name": "LengthMismatch",
      "type": "error"
    },
    {
      "inputs": [
        {
          "internalType": "address",
          "name": "owner",
          "type": "address"
        }
      ],
      "name": "OwnableInvalidOwner",
      "type": "error"
    },
    {
      "inputs": [
        {
          "internalType": "address",
          "name": "account",
          "type": "address"
        }
      ],
      "name": "OwnableUnauthorizedAccount",
      "type": "error"
    },
    {
      "anonymous": false,
      "inputs": [
        {
          "indexed": true,
          "internalType": "address",
          "name": "escrow",
          "type": "address"
        },
        {
          "indexed": true,
          "internalType": "bytes32",
          "name": "orderHash",
          "type": "bytes32"
        },
        {
          "indexed": false,
          "internalType": "bytes32",
          "name": "hashlock",
          "type": "bytes32"
        }
      ],
      "name": "DstEscrowDeployed",
      "type": "event"
    },
    {
      "anonymous": false,
      "inputs": [
        {
          "indexed": true,
          "internalType": "address",
          "name": "previousOwner",
          "type": "address"
        },
        {
          "indexed": true,
          "internalType": "address",
          "name": "newOwner",
          "type": "address"
        }
      ],
      "name": "OwnershipTransferred",
      "type": "event"
    },
    {
      "anonymous": false,
      "inputs": [
        {
          "indexed": true,
          "internalType": "address",
          "name": "escrow",
          "type": "address"
        }
      ],
      "name": "ResolverCancel",
      "type": "event"
    },
    {
      "anonymous": false,
      "inputs": [
        {
          "indexed": true,
          "internalType": "address",
          "name": "escrow",
          "type": "address"
        },
        {
          "indexed": false,
          "internalType": "bytes32",
          "name": "secret",
          "type": "bytes32"
        }
      ],
      "name": "ResolverWithdraw",
      "type": "event"
    },
    {
      "anonymous": false,
      "inputs": [
        {
          "indexed": true,
          "internalType": "address",
          "name": "escrow",
          "type": "address"
        },
        {
          "indexed": true,
          "internalType": "bytes32",
          "name": "orderHash",
          "type": "bytes32"
        },
        {
          "indexed": false,
          "internalType": "bytes32",
          "name": "hashlock",
          "type": "bytes32"
        }
      ],
      "name": "SrcEscrowDeployed",
      "type": "event"
    },
    {
      "inputs": [
        {
          "internalType": "address[]",
          "name": "targets",
          "type": "address[]"
        },
        {
          "internalType": "bytes[]",
          "name": "arguments",
          "type": "bytes[]"
        }
      ],
      "name": "arbitraryCalls",
      "outputs": [],
      "stateMutability": "nonpayable",
      "type": "function"
    },
    {
      "inputs": [
        {
          "internalType": "contract IEscrow",
          "name": "escrow",
          "type": "address"
        },
        {
          "components": [
            {
              "internalType": "bytes32",
              "name": "orderHash",
              "type": "bytes32"
            },
            {
              "internalType": "bytes32",
              "name": "hashlock",
              "type": "bytes32"
            },
            {
              "internalType": "Address",
              "name": "maker",
              "type": "uint256"
            },
            {
              "internalType": "Address",
              "name": "taker",
              "type": "uint256"
            },
            {
              "internalType": "Address",
              "name": "token",
              "type": "uint256"
            },
            {
              "internalType": "uint256",
              "name": "amount",
              "type": "uint256"
            },
            {
              "internalType": "uint256",
              "name": "safetyDeposit",
              "type": "uint256"
            },
            {
              "internalType": "Timelocks",
              "name": "timelocks",
              "type": "uint256"
            }
          ],
          "internalType": "struct IBaseEscrow.Immutables",
          "name": "immutables",
          "type": "tuple"
        }
      ],
      "name": "cancel",
      "outputs": [],
      "stateMutability": "nonpayable",
      "type": "function"
    },
    {
      "inputs": [
        {
          "components": [
            {
              "internalType": "bytes32",
              "name": "orderHash",
              "type": "bytes32"
            },
            {
              "internalType": "bytes32",
              "name": "hashlock",
              "type": "bytes32"
            },
            {
              "internalType": "Address",
              "name": "maker",
              "type": "uint256"
            },
            {
              "internalType": "Address",
              "name": "taker",
              "type": "uint256"
            },
            {
              "internalType": "Address",
              "name": "token",
              "type": "uint256"
            },
            {
              "internalType": "uint256",
              "name": "amount",
              "type": "uint256"
            },
            {
              "internalType": "uint256",
              "name": "safetyDeposit",
              "type": "uint256"
            },
            {
              "internalType": "Timelocks",
              "name": "timelocks",
              "type": "uint256"
            }
          ],
          "internalType": "struct IBaseEscrow.Immutables",
          "name": "dstImmutables",
          "type": "tuple"
        }
      ],
      "name": "deployDst",
      "outputs": [
        {
          "internalType": "address",
          "name": "escrow",
          "type": "address"
        }
      ],
      "stateMutability": "payable",
      "type": "function"
    },
    {
      "inputs": [
        {
          "components": [
            {
              "internalType": "bytes32",
              "name": "orderHash",
              "type": "bytes32"
            },
            {
              "internalType": "bytes32",
              "name": "hashlock",
              "type": "bytes32"
            },
            {
              "internalType": "Address",
              "name": "maker",
              "type": "uint256"
            },
            {
              "internalType": "Address",
              "name": "taker",
              "type": "uint256"
            },
            {
              "internalType": "Address",
              "name": "token",
              "type": "uint256"
            },
            {
              "internalType": "uint256",
              "name": "amount",
              "type": "uint256"
            },
            {
              "internalType": "uint256",
              "name": "safetyDeposit",
              "type": "uint256"
            },
            {
              "internalType": "Timelocks",
              "name": "timelocks",
              "type": "uint256"
            }
          ],
          "internalType": "struct IBaseEscrow.Immutables",
          "name": "immutables",
          "type": "tuple"
        }
      ],
      "name": "deploySrc",
      "outputs": [
        {
          "internalType": "address",
          "name": "escrow",
          "type": "address"
        }
      ],
      "stateMutability": "payable",
      "type": "function"
    },
    {
      "inputs": [],
      "name": "getFactory",
      "outputs": [
        {
          "internalType": "address",
          "name": "",
          "type": "address"
        }
      ],
      "stateMutability": "view",
      "type": "function"
    },
    {
      "inputs": [],
      "name": "owner",
      "outputs": [
        {
          "internalType": "address",
          "name": "",
          "type": "address"
        }
      ],
      "stateMutability": "view",
      "type": "function"
    },
    {
      "inputs": [],
      "name": "renounceOwnership",
      "outputs": [],
      "stateMutability": "nonpayable",
      "type": "function"
    },
    {
      "inputs": [
        {
          "internalType": "address",
          "name": "newOwner",
          "type": "address"
        }
      ],
      "name": "transferOwnership",
      "outputs": [],
      "stateMutability": "nonpayable",
      "type": "function"
    },
    {
      "inputs": [
        {
          "internalType": "contract IEscrow",
          "name": "escrow",
          "type": "address"
        },
        {
          "internalType": "bytes32",
          "name": "secret",
          "type": "bytes32"
        },
        {
          "components": [
            {
              "internalType": "bytes32",
              "name": "orderHash",
              "type": "bytes32"
            },
            {
              "internalType": "bytes32",
              "name": "hashlock",
              "type": "bytes32"
            },
            {
              "internalType": "Address",
              "name": "maker",
              "type": "uint256"
            },
            {
              "internalType": "Address",
              "name": "taker",
              "type": "uint256"
            },
            {
              "internalType": "Address",
              "name": "token",
              "type": "uint256"
            },
            {
              "internalType": "uint256",
              "name": "amount",
              "type": "uint256"
            },
            {
              "internalType": "uint256",
              "name": "safetyDeposit",
              "type": "uint256"
            },
            {
              "internalType": "Timelocks",
              "name": "timelocks",
              "type": "uint256"
            }
          ],
          "internalType": "struct IBaseEscrow.Immutables",
          "name": "immutables",
          "type": "tuple"
        }
      ],
      "name": "withdraw",
      "outputs": [],
      "stateMutability": "nonpayable",
      "type": "function"
    },
    {
      "inputs": [
        {
          "internalType": "address payable",
          "name": "to",
          "type": "address"
        },
        {
          "internalType": "uint256",
          "name": "amount",
          "type": "uint256"
        }
      ],
      "name": "withdrawETH",
      "outputs": [],
      "stateMutability": "nonpayable",
      "type": "function"
    },
    {
      "stateMutability": "payable",
      "type": "receive"
    }
  ],
  "bytecode": "0x60a060405234801561000f575f80fd5b50604051610ddd380380610ddd83398101604081905261002e916100e2565b806001600160a01b03811661005c57604051631e4fbdf760e01b81525f600482015260240160405180910390fd5b61006581610078565b50506001600160a01b0316608052610113565b5f80546001600160a01b038381166001600160a01b0319831681178455604051919092169283917f8be0079c531659141344cd1fd0a4f28419497f9722a3daafe3b4186f6b6457e09190a35050565b80516001600160a01b03811681146100dd575f80fd5b919050565b5f80604083850312156100f3575f80fd5b6100fc836100c7565b915061010a602084016100c7565b90509250929050565b608051610c966101475f395f818161014d015281816104170152818161048f015281816106bf01526107370152610c965ff3fe608060405260043610610092575f3560e01c806388cc58e41161005757806388cc58e41461013f5780638da5cb5b14610171578063a4fc705a1461018d578063b499a573146101ac578063f2fde38b146101bf575f80fd5b80631f3177ba1461009d5780632c3c9a37146100be5780633272b433146100dd5780634782f7791461010c578063715018a61461012b575f80fd5b3661009957005b5f80fd5b3480156100a8575f80fd5b506100bc6100b7366004610910565b6101de565b005b3480156100c9575f80fd5b506100bc6100d83660046109a2565b610327565b6100f06100eb3660046109df565b6103d2565b6040516001600160a01b03909116815260200160405180910390f35b348015610117575f80fd5b506100bc610126366004610a01565b610552565b348015610136575f80fd5b506100bc6105f4565b34801561014a575f80fd5b507f00000000000000000000000000000000000000000000000000000000000000006100f0565b34801561017c575f80fd5b505f546001600160a01b03166100f0565b348015610198575f80fd5b506100bc6101a7366004610a2b565b610607565b6100f06101ba3660046109df565b61069f565b3480156101ca575f80fd5b506100bc6101d9366004610a60565b6107f9565b6101e6610836565b8281811461020a576040516001621398b960e31b0319815260040160405180910390fd5b5f5b8181101561031f575f8087878481811061022857610228610a7b565b905060200201602081019061023d9190610a60565b6001600160a01b031686868581811061025857610258610a7b565b905060200281019061026a9190610a8f565b604051610278929190610ad2565b5f604051808303815f865af19150503d805f81146102b1576040519150601f19603f3d011682016040523d82523d5f602084013e6102b6565b606091505b509150915081610315578051156102d05780518082602001fd5b60405162461bcd60e51b8152602060048201526015602482015274105c989a5d1c985c9e4818d85b1b0819985a5b1959605a1b60448201526064015b60405180910390fd5b505060010161020c565b505050505050565b61032f610836565b604051632330570360e01b81526001600160a01b0384169063233057039061035d9085908590600401610b2f565b5f604051808303815f87803b158015610374575f80fd5b505af1158015610386573d5f803e3d5ffd5b50505050826001600160a01b03167fc4129b0a2db5720f02969b201fe44030bb2f9c81a744c074bc576b9792a218c8836040516103c591815260200190565b60405180910390a2505050565b5f6103db610836565b5f6103eb36849003840184610b44565b90506103fb8360e0013542610862565b60e0820152604051637db5ea3f60e11b81526001600160a01b037f0000000000000000000000000000000000000000000000000000000000000000169063fb6bd47e9061044c908490600401610bde565b602060405180830381865afa158015610467573d5f803e3d5ffd5b505050506040513d601f19601f8201168201806040525081019061048b9190610c36565b91507f00000000000000000000000000000000000000000000000000000000000000006001600160a01b031663c3a2884134836040518363ffffffff1660e01b81526004016104da9190610bde565b5f604051808303818588803b1580156104f1575f80fd5b505af1158015610503573d5f803e3d5ffd5b50506040516020808801358252873594506001600160a01b03871693507f258d57c65e4a8f844f0cebb9cf97f40f909bfc7c0be7de6ac5586dc604aec13392500160405180910390a350919050565b61055a610836565b5f826001600160a01b0316826040515f6040518083038185875af1925050503d805f81146105a3576040519150601f19603f3d011682016040523d82523d5f602084013e6105a8565b606091505b50509050806105ef5760405162461bcd60e51b8152602060048201526013602482015272115512081d1c985b9cd9995c8819985a5b1959606a1b604482015260640161030c565b505050565b6105fc610836565b6106055f610879565b565b61060f610836565b6040516390d3252f60e01b81526001600160a01b038316906390d3252f9061063b908490600401610c51565b5f604051808303815f87803b158015610652575f80fd5b505af1158015610664573d5f803e3d5ffd5b50506040516001600160a01b03851692507f1162d2a6ed18a28ab5bf9c93daf82d81af0275f343639e208bebc4273e3466ab91505f90a25050565b5f6106a8610836565b604051632f963a4760e21b81526001600160a01b037f0000000000000000000000000000000000000000000000000000000000000000169063be58e91c906106f4908590600401610c51565b602060405180830381865afa15801561070f573d5f803e3d5ffd5b505050506040513d601f19601f820116820180604052508101906107339190610c36565b90507f00000000000000000000000000000000000000000000000000000000000000006001600160a01b0316634579d04b34846040518363ffffffff1660e01b81526004016107829190610c51565b5f604051808303818588803b158015610799575f80fd5b505af11580156107ab573d5f803e3d5ffd5b50506040516020808701358252863594506001600160a01b03861693507f1207398be21c6be9d65e2168886fffa0deacefb28f9401e3d85f6a605190a00b92500160405180910390a3919050565b610801610836565b6001600160a01b03811661082a57604051631e4fbdf760e01b81525f600482015260240161030c565b61083381610879565b50565b5f546001600160a01b031633146106055760405163118cdaa760e01b815233600482015260240161030c565b6001600160e01b03821660e082901b175b92915050565b5f80546001600160a01b038381166001600160a01b0319831681178455604051919092169283917f8be0079c531659141344cd1fd0a4f28419497f9722a3daafe3b4186f6b6457e09190a35050565b5f8083601f8401126108d8575f80fd5b50813567ffffffffffffffff8111156108ef575f80fd5b6020830191508360208260051b8501011115610909575f80fd5b9250929050565b5f805f8060408587031215610923575f80fd5b843567ffffffffffffffff8082111561093a575f80fd5b610946888389016108c8565b9096509450602087013591508082111561095e575f80fd5b5061096b878288016108c8565b95989497509550505050565b6001600160a01b0381168114610833575f80fd5b5f610100828403121561099c575f80fd5b50919050565b5f805f61014084860312156109b5575f80fd5b83356109c081610977565b9250602084013591506109d6856040860161098b565b90509250925092565b5f61010082840312156109f0575f80fd5b6109fa838361098b565b9392505050565b5f8060408385031215610a12575f80fd5b8235610a1d81610977565b946020939093013593505050565b5f806101208385031215610a3d575f80fd5b8235610a4881610977565b9150610a57846020850161098b565b90509250929050565b5f60208284031215610a70575f80fd5b81356109fa81610977565b634e487b7160e01b5f52603260045260245ffd5b5f808335601e19843603018112610aa4575f80fd5b83018035915067ffffffffffffffff821115610abe575f80fd5b602001915036819003821315610909575f80fd5b818382375f9101908152919050565b803582526020810135602083015260408101356040830152606081013560608301526080810135608083015260a081013560a083015260c081013560c083015260e081013560e08301525050565b82815261012081016109fa6020830184610ae1565b5f610100808385031215610b56575f80fd5b6040519081019067ffffffffffffffff82118183101715610b8557634e487b7160e01b5f52604160045260245ffd5b81604052833581526020840135602082015260408401356040820152606084013560608201526080840135608082015260a084013560a082015260c084013560c082015260e084013560e0820152809250505092915050565b5f61010082019050825182526020830151602083015260408301516040830152606083015160608301526080830151608083015260a083015160a083015260c083015160c083015260e083015160e083015292915050565b5f60208284031215610c46575f80fd5b81516109fa81610977565b61010081016108738284610ae156fea2646970667358221220f3cd59f04b9c6c179db0070d587e87146a84d1c2cb56a75d9ad1b269c3a098c664736f6c63430008170033",
  "linkReferences": {},
  "deployedLinkReferences": {},
  "immutableReferences": {
    "216": [
      {
        "length": 32,
        "start": 333
      },
      {
        "length": 32,
        "start": 1047
      },
      {
        "length": 32,
        "start": 1167
      },
      {
        "length": 32,
        "start": 1727
      },
      {
        "length": 32,
        "start": 1847
      }
    ]
  },
  "inputSourceName": "project/contracts/Resolver.sol",
  "buildInfoId": "solc-0_8_23-e5c36b4fa5a494ebedc2ee0450d43e70f7f5ca09"
}