{
  "_format": "hh3-artifact-1",
  "contractName": "STXEscrowFactory",
  "sourceName": "contracts/STXEscrowFactory.sol",
  "abi": [
    {
      "inputs": [
        {
          "internalType": "contract IERC20",
          "name": "accessToken",
          "type": "address"
        },
        {
          "internalType": "address",
          "name": "owner",
          "type": "address"
        },
        {
          "internalType": "uint32",
          "name": "rescueDelaySrc",
          "type": "uint32"
        },
        {
          "internalType": "uint32",
          "name": "rescueDelayDst",
          "type": "uint32"
        },
        {
          "internalType": "uint256",
          "name": "_creationFee",
          "type": "uint256"
        },
        {
          "internalType": "address",
          "name": "_treasury",
          "type": "address"
        },
        {
          "components": [
            {
              "internalType": "uint256",
              "name": "minConfirmations",
              "type": "uint256"
            },
            {
              "internalType": "uint256",
              "name": "dustThreshold",
              "type": "uint256"
            },
            {
              "internalType": "uint256",
              "name": "maxAmount",
              "type": "uint256"
            }
          ],
          "internalType": "struct STXEscrowFactory.StacksConfig",
          "name": "_stacksConfig",
          "type": "tuple"
        }
      ],
      "stateMutability": "nonpayable",
      "type": "constructor"
    },
    {
      "inputs": [],
      "name": "Create2EmptyBytecode",
      "type": "error"
    },
    {
      "inputs": [],
      "name": "FailedDeployment",
      "type": "error"
    },
    {
      "inputs": [],
      "name": "FeeTransferFailed",
      "type": "error"
    },
    {
      "inputs": [
        {
          "internalType": "uint256",
          "name": "balance",
          "type": "uint256"
        },
        {
          "internalType": "uint256",
          "name": "needed",
          "type": "uint256"
        }
      ],
      "name": "InsufficientBalance",
      "type": "error"
    },
    {
      "inputs": [],
      "name": "InsufficientEscrowBalance",
      "type": "error"
    },
    {
      "inputs": [],
      "name": "InvalidFeeAmount",
      "type": "error"
    },
    {
      "inputs": [],
      "name": "InvalidStacksAddress",
      "type": "error"
    },
    {
      "inputs": [],
      "name": "InvalidStacksAmount",
      "type": "error"
    },
    {
      "inputs": [
        {
          "internalType": "address",
          "name": "owner",
          "type": "address"
        }
      ],
      "name": "OwnableInvalidOwner",
      "type": "error"
    },
    {
      "inputs": [
        {
          "internalType": "address",
          "name": "account",
          "type": "address"
        }
      ],
      "name": "OwnableUnauthorizedAccount",
      "type": "error"
    },
    {
      "inputs": [
        {
          "internalType": "address",
          "name": "token",
          "type": "address"
        }
      ],
      "name": "SafeERC20FailedOperation",
      "type": "error"
    },
    {
      "anonymous": false,
      "inputs": [
        {
          "indexed": false,
          "internalType": "uint256",
          "name": "oldFee",
          "type": "uint256"
        },
        {
          "indexed": false,
          "internalType": "uint256",
          "name": "newFee",
          "type": "uint256"
        }
      ],
      "name": "CreationFeeUpdated",
      "type": "event"
    },
    {
      "anonymous": false,
      "inputs": [
        {
          "indexed": false,
          "internalType": "address",
          "name": "escrow",
          "type": "address"
        },
        {
          "indexed": false,
          "internalType": "bytes32",
          "name": "hashlock",
          "type": "bytes32"
        },
        {
          "indexed": false,
          "internalType": "Address",
          "name": "taker",
          "type": "uint256"
        },
        {
          "indexed": true,
          "internalType": "address",
          "name": "creator",
          "type": "address"
        }
      ],
      "name": "DstEscrowCreated",
      "type": "event"
    },
    {
      "anonymous": false,
      "inputs": [
        {
          "indexed": true,
          "internalType": "address",
          "name": "previousOwner",
          "type": "address"
        },
        {
          "indexed": true,
          "internalType": "address",
          "name": "newOwner",
          "type": "address"
        }
      ],
      "name": "OwnershipTransferred",
      "type": "event"
    },
    {
      "anonymous": false,
      "inputs": [
        {
          "indexed": false,
          "internalType": "address",
          "name": "escrow",
          "type": "address"
        },
        {
          "indexed": false,
          "internalType": "bytes32",
          "name": "hashlock",
          "type": "bytes32"
        },
        {
          "indexed": false,
          "internalType": "Address",
          "name": "maker",
          "type": "uint256"
        },
        {
          "indexed": true,
          "internalType": "address",
          "name": "creator",
          "type": "address"
        }
      ],
      "name": "SrcEscrowCreated",
      "type": "event"
    },
    {
      "anonymous": false,
      "inputs": [
        {
          "components": [
            {
              "internalType": "uint256",
              "name": "minConfirmations",
              "type": "uint256"
            },
            {
              "internalType": "uint256",
              "name": "dustThreshold",
              "type": "uint256"
            },
            {
              "internalType": "uint256",
              "name": "maxAmount",
              "type": "uint256"
            }
          ],
          "indexed": false,
          "internalType": "struct STXEscrowFactory.StacksConfig",
          "name": "config",
          "type": "tuple"
        }
      ],
      "name": "StacksConfigUpdated",
      "type": "event"
    },
    {
      "anonymous": false,
      "inputs": [
        {
          "indexed": false,
          "internalType": "address",
          "name": "oldTreasury",
          "type": "address"
        },
        {
          "indexed": false,
          "internalType": "address",
          "name": "newTreasury",
          "type": "address"
        }
      ],
      "name": "TreasuryUpdated",
      "type": "event"
    },
    {
      "inputs": [],
      "name": "ACCESS_TOKEN",
      "outputs": [
        {
          "internalType": "contract IERC20",
          "name": "",
          "type": "address"
        }
      ],
      "stateMutability": "view",
      "type": "function"
    },
    {
      "inputs": [],
      "name": "STX_ESCROW_DST_IMPLEMENTATION",
      "outputs": [
        {
          "internalType": "address",
          "name": "",
          "type": "address"
        }
      ],
      "stateMutability": "view",
      "type": "function"
    },
    {
      "inputs": [],
      "name": "STX_ESCROW_SRC_IMPLEMENTATION",
      "outputs": [
        {
          "internalType": "address",
          "name": "",
          "type": "address"
        }
      ],
      "stateMutability": "view",
      "type": "function"
    },
    {
      "inputs": [
        {
          "components": [
            {
              "internalType": "bytes32",
              "name": "orderHash",
              "type": "bytes32"
            },
            {
              "internalType": "bytes32",
              "name": "hashlock",
              "type": "bytes32"
            },
            {
              "internalType": "Address",
              "name": "maker",
              "type": "uint256"
            },
            {
              "internalType": "Address",
              "name": "taker",
              "type": "uint256"
            },
            {
              "internalType": "Address",
              "name": "token",
              "type": "uint256"
            },
            {
              "internalType": "uint256",
              "name": "amount",
              "type": "uint256"
            },
            {
              "internalType": "uint256",
              "name": "safetyDeposit",
              "type": "uint256"
            },
            {
              "internalType": "Timelocks",
              "name": "timelocks",
              "type": "uint256"
            }
          ],
          "internalType": "struct IBaseEscrow.Immutables",
          "name": "immutables",
          "type": "tuple"
        }
      ],
      "name": "addressOfEscrowDst",
      "outputs": [
        {
          "internalType": "address",
          "name": "",
          "type": "address"
        }
      ],
      "stateMutability": "view",
      "type": "function"
    },
    {
      "inputs": [
        {
          "components": [
            {
              "internalType": "bytes32",
              "name": "orderHash",
              "type": "bytes32"
            },
            {
              "internalType": "bytes32",
              "name": "hashlock",
              "type": "bytes32"
            },
            {
              "internalType": "Address",
              "name": "maker",
              "type": "uint256"
            },
            {
              "internalType": "Address",
              "name": "taker",
              "type": "uint256"
            },
            {
              "internalType": "Address",
              "name": "token",
              "type": "uint256"
            },
            {
              "internalType": "uint256",
              "name": "amount",
              "type": "uint256"
            },
            {
              "internalType": "uint256",
              "name": "safetyDeposit",
              "type": "uint256"
            },
            {
              "internalType": "Timelocks",
              "name": "timelocks",
              "type": "uint256"
            }
          ],
          "internalType": "struct IBaseEscrow.Immutables",
          "name": "immutables",
          "type": "tuple"
        }
      ],
      "name": "addressOfEscrowSrc",
      "outputs": [
        {
          "internalType": "address",
          "name": "",
          "type": "address"
        }
      ],
      "stateMutability": "view",
      "type": "function"
    },
    {
      "inputs": [
        {
          "components": [
            {
              "internalType": "bytes32",
              "name": "orderHash",
              "type": "bytes32"
            },
            {
              "internalType": "bytes32",
              "name": "hashlock",
              "type": "bytes32"
            },
            {
              "internalType": "Address",
              "name": "maker",
              "type": "uint256"
            },
            {
              "internalType": "Address",
              "name": "taker",
              "type": "uint256"
            },
            {
              "internalType": "Address",
              "name": "token",
              "type": "uint256"
            },
            {
              "internalType": "uint256",
              "name": "amount",
              "type": "uint256"
            },
            {
              "internalType": "uint256",
              "name": "safetyDeposit",
              "type": "uint256"
            },
            {
              "internalType": "Timelocks",
              "name": "timelocks",
              "type": "uint256"
            }
          ],
          "internalType": "struct IBaseEscrow.Immutables",
          "name": "immutables",
          "type": "tuple"
        }
      ],
      "name": "createDstEscrow",
      "outputs": [],
      "stateMutability": "payable",
      "type": "function"
    },
    {
      "inputs": [
        {
          "components": [
            {
              "internalType": "bytes32",
              "name": "orderHash",
              "type": "bytes32"
            },
            {
              "internalType": "bytes32",
              "name": "hashlock",
              "type": "bytes32"
            },
            {
              "internalType": "Address",
              "name": "maker",
              "type": "uint256"
            },
            {
              "internalType": "Address",
              "name": "taker",
              "type": "uint256"
            },
            {
              "internalType": "Address",
              "name": "token",
              "type": "uint256"
            },
            {
              "internalType": "uint256",
              "name": "amount",
              "type": "uint256"
            },
            {
              "internalType": "uint256",
              "name": "safetyDeposit",
              "type": "uint256"
            },
            {
              "internalType": "Timelocks",
              "name": "timelocks",
              "type": "uint256"
            }
          ],
          "internalType": "struct IBaseEscrow.Immutables",
          "name": "immutables",
          "type": "tuple"
        }
      ],
      "name": "createSrcEscrow",
      "outputs": [],
      "stateMutability": "payable",
      "type": "function"
    },
    {
      "inputs": [],
      "name": "creationFee",
      "outputs": [
        {
          "internalType": "uint256",
          "name": "",
          "type": "uint256"
        }
      ],
      "stateMutability": "view",
      "type": "function"
    },
    {
      "inputs": [],
      "name": "owner",
      "outputs": [
        {
          "internalType": "address",
          "name": "",
          "type": "address"
        }
      ],
      "stateMutability": "view",
      "type": "function"
    },
    {
      "inputs": [],
      "name": "renounceOwnership",
      "outputs": [],
      "stateMutability": "nonpayable",
      "type": "function"
    },
    {
      "inputs": [
        {
          "internalType": "uint256",
          "name": "newFee",
          "type": "uint256"
        }
      ],
      "name": "setCreationFee",
      "outputs": [],
      "stateMutability": "nonpayable",
      "type": "function"
    },
    {
      "inputs": [
        {
          "components": [
            {
              "internalType": "uint256",
              "name": "minConfirmations",
              "type": "uint256"
            },
            {
              "internalType": "uint256",
              "name": "dustThreshold",
              "type": "uint256"
            },
            {
              "internalType": "uint256",
              "name": "maxAmount",
              "type": "uint256"
            }
          ],
          "internalType": "struct STXEscrowFactory.StacksConfig",
          "name": "newConfig",
          "type": "tuple"
        }
      ],
      "name": "setStacksConfig",
      "outputs": [],
      "stateMutability": "nonpayable",
      "type": "function"
    },
    {
      "inputs": [
        {
          "internalType": "address",
          "name": "newTreasury",
          "type": "address"
        }
      ],
      "name": "setTreasury",
      "outputs": [],
      "stateMutability": "nonpayable",
      "type": "function"
    },
    {
      "inputs": [],
      "name": "stacksConfig",
      "outputs": [
        {
          "internalType": "uint256",
          "name": "minConfirmations",
          "type": "uint256"
        },
        {
          "internalType": "uint256",
          "name": "dustThreshold",
          "type": "uint256"
        },
        {
          "internalType": "uint256",
          "name": "maxAmount",
          "type": "uint256"
        }
      ],
      "stateMutability": "view",
      "type": "function"
    },
    {
      "inputs": [
        {
          "internalType": "address",
          "name": "newOwner",
          "type": "address"
        }
      ],
      "name": "transferOwnership",
      "outputs": [],
      "stateMutability": "nonpayable",
      "type": "function"
    },
    {
      "inputs": [],
      "name": "treasury",
      "outputs": [
        {
          "internalType": "address",
          "name": "",
          "type": "address"
        }
      ],
      "stateMutability": "view",
      "type": "function"
    }
  ],
  "bytecode": "0x61012034620002b557601f62003de838819003918201601f19168301916001600160401b03919082841185851017620002805780859260409586528339810103906101208212620002b55783516001600160a01b03929091908383168303620002b5576200007060208701620002b9565b6200007d868801620002ce565b906200008c60608901620002ce565b926080890151906060620000a360a08c01620002b9565b9160bf190112620002b557885190606082018281108882111762000280578a5260c08b0151825260e08b0151926020830193845289610100809d0151958c85019687521680156200029e578a96959493928c928b8f8a945f549b8c978260018060a01b0319809a16175f55519c167f8be0079c531659141344cd1fd0a4f28419497f9722a3daafe3b4186f6b6457e05f80a3526001551690600254161760025551600355516004555160055561154e808301908382108683111762000280578392620001919288926200289a863963ffffffff90911681526001600160a01b03909116602082015260400190565b03905ff080156200029457841660805284519261158391828501938585109085111762000280578493620001e59362001317863963ffffffff90911681526001600160a01b03909116602082015260400190565b03905ff080156200027657908062000217921660a0526200020a8160805116620002e0565b60c05260a05116620002e0565b60e05251610fbc91826200035b83396080518281816108190152610b8f015260a051828181610a170152610d18015260c051828181610156015281816104780152610b67015260e0518281816105b101526108d7015251816109ab0152f35b82513d5f823e3d90fd5b634e487b7160e01b5f52604160045260245ffd5b85513d5f823e3d90fd5b8b51631e4fbdf760e01b81525f6004820152602490fd5b5f80fd5b51906001600160a01b0382168203620002b557565b519063ffffffff82168203620002b557565b6040517f3d602d80600a3d3981f3363d3d373d3d3d363d7300000000000000000000000060208201908152606092831b6001600160601b03191660348301526e5af43d82803e903d91602b57fd5bf360881b6048830152603782529181016001600160401b0381118282101762000280576040525190209056fe6080604090808252600480361015610015575f80fd5b5f3560e01c91826331f0d252146109cf575081633eb5002a146109615781634579d04b1461083d57816357798499146107cf57816361d027b31461077d578163715018a6146106e35781638da5cb5b14610692578163ab321c8114610646578163b7d86225146105d6578163be58e91c1461052a578163c3a28841146103de578163daf50b851461035b578163dce0b4e41461031f578163f0f4426014610269578163f2fde38b14610187575063fb6bd47e146100d0575f80fd5b346101835761010090817ffffffffffffffffffffffffffffffffffffffffffffffffffffffffffffffffc3601126101835773ffffffffffffffffffffffffffffffffffffffff61017b60209361012636610a75565b4260e01b7bffffffffffffffffffffffffffffffffffffffffffffffffffffffff60e435161760e08201522030907f000000000000000000000000000000000000000000000000000000000000000090610f50565b915191168152f35b5f80fd5b82346101835760207ffffffffffffffffffffffffffffffffffffffffffffffffffffffffffffffffc3601126101835781359173ffffffffffffffffffffffffffffffffffffffff91828416809403610183576101e2610f00565b831561023a5750505f54827fffffffffffffffffffffffff00000000000000000000000000000000000000008216175f55167f8be0079c531659141344cd1fd0a4f28419497f9722a3daafe3b4186f6b6457e05f80a3005b905f60249251917f1e4fbdf7000000000000000000000000000000000000000000000000000000008352820152fd5b9050346101835760207ffffffffffffffffffffffffffffffffffffffffffffffffffffffffffffffffc36011261018357359073ffffffffffffffffffffffffffffffffffffffff808316809303610183577f4ab5be82436d353e61ca18726e984e561f5c1cc7c6d38b29d2553c790434705a926102e5610f00565b60025491817fffffffffffffffffffffffff00000000000000000000000000000000000000008416176002558351921682526020820152a1005b8234610183575f7ffffffffffffffffffffffffffffffffffffffffffffffffffffffffffffffffc360112610183576020906001549051908152f35b9050346101835760607ffffffffffffffffffffffffffffffffffffffffffffffffffffffffffffffffc360112610183577ff68c01c3a48db12a69e46d0e92004353f654b2be34f011912d589ee28d20c3c1916060916103b9610f00565b80359182600355602435809255604435918260055581519384526020840152820152a1005b826101007ffffffffffffffffffffffffffffffffffffffffffffffffffffffffffffffffc3601126101835760843573ffffffffffffffffffffffffffffffffffffffff1680159283156105215761043a60c43560a435610a3b565b905b61044860015483610a3b565b34036104fa57509061049c7f54a6401c7dbf5f93434419131a2b02390428924f99a62619b581ecc916e2614793927f0000000000000000000000000000000000000000000000000000000000000000610b2b565b93156104e4575b506104ac610e15565b5173ffffffffffffffffffffffffffffffffffffffff909216825260243560208301526044356040830152339180606081015b0390a2005b6104f4908460a435913390610d3c565b836104a3565b83517f34f5151d000000000000000000000000000000000000000000000000000000008152fd5b60c4359061043c565b82346101835761010090817ffffffffffffffffffffffffffffffffffffffffffffffffffffffffffffffffc3601126101835773ffffffffffffffffffffffffffffffffffffffff61017b60209361058136610a75565b4260e01b7bffffffffffffffffffffffffffffffffffffffffffffffffffffffff60e435161760e08201522030907f000000000000000000000000000000000000000000000000000000000000000090610f50565b82346101835760207ffffffffffffffffffffffffffffffffffffffffffffffffffffffffffffffffc360112610183577f5de302eeb1c80d4fb0c0953b692353f09ddf431411b8eb2034d5e857695619129135610631610f00565b600154908060015582519182526020820152a1005b905034610183575f7ffffffffffffffffffffffffffffffffffffffffffffffffffffffffffffffffc360112610183576060916003549154906005549181519384526020840152820152f35b8234610183575f7ffffffffffffffffffffffffffffffffffffffffffffffffffffffffffffffffc3601126101835760209073ffffffffffffffffffffffffffffffffffffffff5f54169051908152f35b34610183575f7ffffffffffffffffffffffffffffffffffffffffffffffffffffffffffffffffc36011261018357610719610f00565b5f73ffffffffffffffffffffffffffffffffffffffff81547fffffffffffffffffffffffff000000000000000000000000000000000000000081168355167f8be0079c531659141344cd1fd0a4f28419497f9722a3daafe3b4186f6b6457e08280a3005b8234610183575f7ffffffffffffffffffffffffffffffffffffffffffffffffffffffffffffffffc3601126101835760209073ffffffffffffffffffffffffffffffffffffffff600254169051908152f35b8234610183575f7ffffffffffffffffffffffffffffffffffffffffffffffffffffffffffffffffc360112610183576020905173ffffffffffffffffffffffffffffffffffffffff7f0000000000000000000000000000000000000000000000000000000000000000168152f35b826101007ffffffffffffffffffffffffffffffffffffffffffffffffffffffffffffffffc3601126101835760843573ffffffffffffffffffffffffffffffffffffffff1680159283156109585761089960c43560a435610a3b565b905b6108a760015483610a3b565b34036104fa5750906108fb7f518f052b717cd6e4cf0abca59109d2531d264ce8e86d81e900110a4eacdee10693927f0000000000000000000000000000000000000000000000000000000000000000610b2b565b9315610942575b5061090b610e15565b5173ffffffffffffffffffffffffffffffffffffffff909216825260243560208301526064356040830152339180606081016104df565b610952908460a435913390610d3c565b83610902565b60c4359061089b565b8234610183575f7ffffffffffffffffffffffffffffffffffffffffffffffffffffffffffffffffc360112610183576020905173ffffffffffffffffffffffffffffffffffffffff7f0000000000000000000000000000000000000000000000000000000000000000168152f35b34610183575f7ffffffffffffffffffffffffffffffffffffffffffffffffffffffffffffffffc3601126101835760209073ffffffffffffffffffffffffffffffffffffffff7f0000000000000000000000000000000000000000000000000000000000000000168152f35b91908201809211610a4857565b7f4e487b71000000000000000000000000000000000000000000000000000000005f52601160045260245ffd5b61010091907ffffffffffffffffffffffffffffffffffffffffffffffffffffffffffffffffc0182136101835760405191820182811067ffffffffffffffff821117610afe57604052816004358152602435602082015260443560408201526064356060820152608435608082015260a43560a082015260c43560c082015260e060e435910152565b7f4e487b71000000000000000000000000000000000000000000000000000000005f52604160045260245ffd5b90610100610b3836610a75565b4260e01b7bffffffffffffffffffffffffffffffffffffffffffffffffffffffff60e435161760e082015220917f0000000000000000000000000000000000000000000000000000000000000000145f14610d16577f00000000000000000000000000000000000000000000000000000000000000005b6040517fffffffffffffffffffffffffffffffffffffffff00000000000000000000000060208201927f3d602d80600a3d3981f3363d3d373d3d3d363d73000000000000000000000000845260601b1660348201527f5af43d82803e903d91602b57fd5bf300000000000000000000000000000000006048820152603781526060810181811067ffffffffffffffff821117610afe5780604052834710610ce35750805115610cb9575191f53d1519811516610cae5773ffffffffffffffffffffffffffffffffffffffff811615610c845790565b60046040517fb06ebf3d000000000000000000000000000000000000000000000000000000008152fd5b6040513d5f823e3d90fd5b60046040517f4ca249dc000000000000000000000000000000000000000000000000000000008152fd5b836084604493477fcf47918100000000000000000000000000000000000000000000000000000000855260648201520152fd5b7f0000000000000000000000000000000000000000000000000000000000000000610baf565b92906040519160208301917f23b872dd00000000000000000000000000000000000000000000000000000000835273ffffffffffffffffffffffffffffffffffffffff9485809216602486015216604484015260648301526064825260a082019082821067ffffffffffffffff831117610afe576020925f92604052519082865af115610cae575f513d610e0c57508082163b155b610dd9575050565b60249250604051917f5274afe7000000000000000000000000000000000000000000000000000000008352166004820152fd5b60011415610dd1565b60015480151580610edf575b610e285750565b5f8080809373ffffffffffffffffffffffffffffffffffffffff600254165af13d15610eda5767ffffffffffffffff3d818111610afe5760405191601f82017fffffffffffffffffffffffffffffffffffffffffffffffffffffffffffffffe0908116603f0116830190811183821017610afe5760405281525f60203d92013e5b15610eb057565b60046040517f4033e4e3000000000000000000000000000000000000000000000000000000008152fd5b610ea9565b5073ffffffffffffffffffffffffffffffffffffffff600254161515610e21565b73ffffffffffffffffffffffffffffffffffffffff5f54163303610f2057565b60246040517f118cdaa7000000000000000000000000000000000000000000000000000000008152336004820152fd5b60559173ffffffffffffffffffffffffffffffffffffffff93600b92604051926040840152602083015281520160ff815320169056fea26469706673582212201d035b94c41858c6145096a5c0e48557ac2b735d5a9beb6b8bd136d27e15355864736f6c634300081700336101003461014e576001600160401b0390601f61158338819003918201601f19168301918483118484101761013a57808492604094855283398101031261014e5780519063ffffffff821680920361014e5760200151906001600160a01b038216820361014e573360c05260a05260805260405160208101907f3d602d80600a3d3981f3363d3d373d3d3d363d7300000000000000000000000082523060601b60348201526e5af43d82803e903d91602b57fd5bf360881b60488201526037815260608101928184109084111761013a578260405251902060e0526114309081610153823960805181610c84015260a05181818160f401526106b9015260c0518181816104c20152818161068301528181610a9a0152611116015260e0518181816104980152818161065901528181610a2d01526110eb0152f35b634e487b7160e01b5f52604160045260245ffd5b5f80fdfe6080604090808252600480361015610021575b505050361561001f575f80fd5b005b60e05f35811c9283630af9755814610c2b575082632330570314610abe5782632dd3100014610a5057826334862b6a146109f85782633966527d146107b95782634649088b146105b8575081635260fac31461011b5781635a11bb6d146103e957816390d3252f1461042f5781639dfa6763146103e9578163b08ae76c14610171578163ebfa20a91461011b575063f56cd69c146100c0578080610012565b34610117575f7ffffffffffffffffffffffffffffffffffffffffffffffffffffffffffffffffc36011261011757602090517f00000000000000000000000000000000000000000000000000000000000000008152f35b5f80fd5b82346101175760207ffffffffffffffffffffffffffffffffffffffffffffffffffffffffffffffffc3601126101175761016d91355f526001602052610162815f20610f4f565b905191829182611031565b0390f35b9050346101175761018136610df4565b61019181969394969592956110c0565b73ffffffffffffffffffffffffffffffffffffffff80848301351633141591826103d7575b50506103b057845f5260016020818152835f209267ffffffffffffffff871161038457506101e48354610e90565b601f811161033e575b505f90601f871160011461027857509185807fac8b6890f5456d3939548eb20946788948974520faf69a852c57042c672c52f997969593610268955f9361026d575b501b907fffffffffffffffffffffffffffffffffffffffffffffffffffffffffffffffff8760031b1c19161790555b519283928361107b565b0390a2005b87013592505f61022f565b907fffffffffffffffffffffffffffffffffffffffffffffffffffffffffffffffe08716845f52825f20925f905b8282106103275750509187969593917fac8b6890f5456d3939548eb20946788948974520faf69a852c57042c672c52f9986102689694106102ef575b505085811b01905561025e565b7fffffffffffffffffffffffffffffffffffffffffffffffffffffffffffffffff60f88960031b161c19908701351690555f806102e2565b808685968294968c013581550195019301906102a6565b835f52815f20601f880160051c81019183891061037a575b601f0160051c019083905b82811061036f5750506101ed565b5f8155018390610361565b9091508190610356565b6041907f4e487b71000000000000000000000000000000000000000000000000000000005f525260245ffd5b90517f48f5c3ed000000000000000000000000000000000000000000000000000000008152fd5b60609192500135163314155f806101b6565b82346101175760207ffffffffffffffffffffffffffffffffffffffffffffffffffffffffffffffffc3601126101175761016d91355f525f602052610162815f20610f4f565b9050346101175761010090817ffffffffffffffffffffffffffffffffffffffffffffffffffffffffffffffffc3601126101175773ffffffffffffffffffffffffffffffffffffffff92836064351692833303610591576055600b8692845181878237208451907f00000000000000000000000000000000000000000000000000000000000000008683015260208201527f000000000000000000000000000000000000000000000000000000000000000081520160ff81532016300361056b576104fb60e4356111ca565b42106105455761051f8361051660a435826084358916611282565b60c43590611366565b7f6e3be9294e58d10b9c8053cfd5e09871b67e442fe394d6b0870d336b9df984a95f80a1005b517f6f7eac26000000000000000000000000000000000000000000000000000000008152fd5b517fa269484a000000000000000000000000000000000000000000000000000000008152fd5b50517f48f5c3ed000000000000000000000000000000000000000000000000000000008152fd5b915034610117576101407ffffffffffffffffffffffffffffffffffffffffffffffffffffffffffffffffc3601126101175780359073ffffffffffffffffffffffffffffffffffffffff9283831683036101175760243593610100807fffffffffffffffffffffffffffffffffffffffffffffffffffffffffffffffbc360112610117578160a43516330361079157600b60559188518160448237208851907f00000000000000000000000000000000000000000000000000000000000000008a83015260208201527f000000000000000000000000000000000000000000000000000000000000000081520160ff8153201630036107695761012435901c7f0000000000000000000000000000000000000000000000000000000000000000014210610742575061073d7fc4474c2790e13695f6d2b6f1d8e164290b55370f87a542fd7711abe0a1bf40ac93610710843385611282565b51928392836020909392919373ffffffffffffffffffffffffffffffffffffffff60408201951681520152565b0390a1005b83517f6f7eac26000000000000000000000000000000000000000000000000000000008152fd5b5083517fa269484a000000000000000000000000000000000000000000000000000000008152fd5b8387517f48f5c3ed000000000000000000000000000000000000000000000000000000008152fd5b838234610117576107c936610df4565b6107d681959294956110c0565b73ffffffffffffffffffffffffffffffffffffffff80878301351633141591826109e6575b50506109bf57835f5260205f8152855f209167ffffffffffffffff851161038457506108278254610e90565b601f811161097c575b505f90601f85116001146108b557509461026891847f581dfdecbf49940447908dcd96ba0255b0510d6d1ecd0e78772c356f6446f58e96975f916108aa575b508560011b907fffffffffffffffffffffffffffffffffffffffffffffffffffffffffffffffff8760031b1c1916179055519283928361107b565b90508401358861086f565b907fffffffffffffffffffffffffffffffffffffffffffffffffffffffffffffffe08516835f52825f20925f905b828210610964575050916102689391867f581dfdecbf49940447908dcd96ba0255b0510d6d1ecd0e78772c356f6446f58e9899941061092c575b5050600185811b01905561025e565b7fffffffffffffffffffffffffffffffffffffffffffffffffffffffffffffffff60f88860031b161c1990860135169055878061091d565b80600185968294968a013581550195019301906108e3565b825f52815f20601f860160051c8101918387106109b5575b601f0160051c01905b8181106109aa5750610830565b5f815560010161099d565b9091508190610994565b84517f48f5c3ed000000000000000000000000000000000000000000000000000000008152fd5b606091925001351633141586806107fb565b8334610117575f7ffffffffffffffffffffffffffffffffffffffffffffffffffffffffffffffffc36011261011757602090517f00000000000000000000000000000000000000000000000000000000000000008152f35b8334610117575f7ffffffffffffffffffffffffffffffffffffffffffffffffffffffffffffffffc360112610117576020905173ffffffffffffffffffffffffffffffffffffffff7f0000000000000000000000000000000000000000000000000000000000000000168152f35b83903461011757610ace36610d95565b929091610ada846110c0565b610ae383611170565b602085013503610c03578084013580911c63ffffffff82168101809111610bd7574210610baf57610b13906111ca565b421015610b875773ffffffffffffffffffffffffffffffffffffffff8082850135163314159081610b76575b50610b4e5761001f8383611211565b8390517f48f5c3ed000000000000000000000000000000000000000000000000000000008152fd5b905060608401351633141585610b3f565b8390517f6f7eac26000000000000000000000000000000000000000000000000000000008152fd5b8482517f6f7eac26000000000000000000000000000000000000000000000000000000008152fd5b6011867f4e487b71000000000000000000000000000000000000000000000000000000005f525260245ffd5b8482517fabab6bd7000000000000000000000000000000000000000000000000000000008152fd5b843461011757610c3a36610d95565b9390927f70a082310000000000000000000000000000000000000000000000000000000081523386820152602090818160248173ffffffffffffffffffffffffffffffffffffffff7f0000000000000000000000000000000000000000000000000000000000000000165afa908115610d8b575f91610d5e575b5015610d3657610cc3856110c0565b610ccc84611170565b8186013503610d0e5763ffffffff828601358080941c921c168101809111610bd7574210610baf57610cfd906111ca565b421015610b875761001f8383611211565b8583517fabab6bd7000000000000000000000000000000000000000000000000000000008152fd5b8583517f48f5c3ed000000000000000000000000000000000000000000000000000000008152fd5b90508181813d8311610d84575b610d758183610ee1565b81010312610117575187610cb4565b503d610d6b565b84513d5f823e3d90fd5b906101207ffffffffffffffffffffffffffffffffffffffffffffffffffffffffffffffffc830112610117576101007fffffffffffffffffffffffffffffffffffffffffffffffffffffffffffffffdc60043593011261011757602490565b906101407ffffffffffffffffffffffffffffffffffffffffffffffffffffffffffffffffc830112610117576004359167ffffffffffffffff916024358381116101175782602382011215610117578060040135938411610117578260248583010111610117577fffffffffffffffffffffffffffffffffffffffffffffffffffffffffffffffbc602461010092019493011261011757604490565b90600182811c92168015610ed7575b6020831014610eaa57565b7f4e487b71000000000000000000000000000000000000000000000000000000005f52602260045260245ffd5b91607f1691610e9f565b90601f7fffffffffffffffffffffffffffffffffffffffffffffffffffffffffffffffe0910116810190811067ffffffffffffffff821117610f2257604052565b7f4e487b71000000000000000000000000000000000000000000000000000000005f52604160045260245ffd5b9060405191825f8254610f6181610e90565b908184526020946001916001811690815f14610fcf5750600114610f91575b505050610f8f92500383610ee1565b565b5f90815285812095935091905b818310610fb7575050610f8f93508201015f8080610f80565b85548884018501529485019487945091830191610f9e565b915050610f8f9593507fffffffffffffffffffffffffffffffffffffffffffffffffffffffffffffff0091501682840152151560051b8201015f8080610f80565b5f5b8381106110215750505f910152565b8181015183820152602001611012565b7fffffffffffffffffffffffffffffffffffffffffffffffffffffffffffffffe0601f604093602084526110748151809281602088015260208888019101611010565b0116010190565b90601f836040947fffffffffffffffffffffffffffffffffffffffffffffffffffffffffffffffe09360208652816020870152868601375f8582860101520116010190565b6055600b73ffffffffffffffffffffffffffffffffffffffff926040516101008092823720604051907f0000000000000000000000000000000000000000000000000000000000000000604083015260208201527f000000000000000000000000000000000000000000000000000000000000000081520160ff81532016300361114657565b60046040517fa269484a000000000000000000000000000000000000000000000000000000008152fd5b6040519060208201908152602082526040820182811067ffffffffffffffff821117610f2257602092816111ad5f94826040528351928391611010565b8101039060025afa156111bf575f5190565b6040513d5f823e3d90fd5b63ffffffff8160e01c9160401c1681018091116111e45790565b7f4e487b71000000000000000000000000000000000000000000000000000000005f52601160045260245ffd5b6020906112797fe346f5c97a360db5188bfa5d3ec5f0583abde420c6ba4d08b6cfe61addc171059373ffffffffffffffffffffffffffffffffffffffff61126960a08301358260408501351683608086013516611282565b606060c083013592013516611366565b604051908152a1565b73ffffffffffffffffffffffffffffffffffffffff169190826112a957610f8f9250611366565b6040517fa9059cbb00000000000000000000000000000000000000000000000000000000602080830191825273ffffffffffffffffffffffffffffffffffffffff93909316602483015260448083019490945292815290915f9161130e606482610ee1565b519082855af1156111bf575f513d61135d5750803b155b61132c5750565b602490604051907f5274afe70000000000000000000000000000000000000000000000000000000082526004820152fd5b60011415611325565b5f80809381935af13d156113f5573d67ffffffffffffffff8111610f2257604051906113ba60207fffffffffffffffffffffffffffffffffffffffffffffffffffffffffffffffe0601f8401160183610ee1565b81525f60203d92013e5b156113cb57565b60046040517f8a0332d5000000000000000000000000000000000000000000000000000000008152fd5b6113c456fea2646970667358221220709e441287f0fa106c2b4042485a1aa3aa2dc3bb93d3307db05ece5fa60568c564736f6c634300081700336101003461014e576001600160401b0390601f61154e38819003918201601f19168301918483118484101761013a57808492604094855283398101031261014e5780519063ffffffff821680920361014e5760200151906001600160a01b038216820361014e573360c05260a05260805260405160208101907f3d602d80600a3d3981f3363d3d373d3d3d363d7300000000000000000000000082523060601b60348201526e5af43d82803e903d91602b57fd5bf360881b60488201526037815260608101928184109084111761013a578260405251902060e0526113fb9081610153823960805181610c4f015260a05181818160f40152610698015260c0518181816104a10152818161066201528181610a6501526110e1015260e05181818161047701528181610638015281816109f801526110b60152f35b634e487b7160e01b5f52604160045260245ffd5b5f80fdfe6080604090808252600480361015610021575b505050361561001f575f80fd5b005b60e05f35811c9283630af9755814610bf6575082632330570314610a895782632dd3100014610a1b57826334862b6a146109c35782633966527d146107985782634649088b14610597575081635260fac31461011b5781635a11bb6d146103c757816390d3252f1461040e5781639dfa6763146103c7578163b08ae76c14610170578163ebfa20a91461011b575063f56cd69c146100c0578080610012565b34610117575f7ffffffffffffffffffffffffffffffffffffffffffffffffffffffffffffffffc36011261011757602090517f00000000000000000000000000000000000000000000000000000000000000008152f35b5f80fd5b82346101175760207ffffffffffffffffffffffffffffffffffffffffffffffffffffffffffffffffc3601126101175761016c91355f525f602052610161815f20610f1a565b905191829182610ffc565b0390f35b9050346101175773ffffffffffffffffffffffffffffffffffffffff8261019636610dbf565b6101a781979497969395929661108b565b01351633036103a057835f5260205f8152855f209167ffffffffffffffff851161037457506101d68254610e5b565b601f8111610331575b505f90601f851160011461026a57509461025a91847fac8b6890f5456d3939548eb20946788948974520faf69a852c57042c672c52f996975f9161025f575b508560011b907fffffffffffffffffffffffffffffffffffffffffffffffffffffffffffffffff8760031b1c19161790555b5192839283611046565b0390a2005b90508401355f61021e565b907fffffffffffffffffffffffffffffffffffffffffffffffffffffffffffffffe08516835f52825f20925f905b8282106103195750509161025a9391867fac8b6890f5456d3939548eb20946788948974520faf69a852c57042c672c52f9989994106102e1575b5050600185811b019055610250565b7fffffffffffffffffffffffffffffffffffffffffffffffffffffffffffffffff60f88860031b161c19908601351690555f806102d2565b80600185968294968a01358155019501930190610298565b825f52815f20601f860160051c81019183871061036a575b601f0160051c01905b81811061035f57506101df565b5f8155600101610352565b9091508190610349565b6041907f4e487b71000000000000000000000000000000000000000000000000000000005f525260245ffd5b84517f48f5c3ed000000000000000000000000000000000000000000000000000000008152fd5b82346101175760207ffffffffffffffffffffffffffffffffffffffffffffffffffffffffffffffffc3601126101175761016c91355f526001602052610161815f20610f1a565b9050346101175761010090817ffffffffffffffffffffffffffffffffffffffffffffffffffffffffffffffffc3601126101175773ffffffffffffffffffffffffffffffffffffffff92836044351692833303610570576055600b8692845181878237208451907f00000000000000000000000000000000000000000000000000000000000000008683015260208201527f000000000000000000000000000000000000000000000000000000000000000081520160ff81532016300361054a576104da60e435611195565b4210610524576104fe836104f560a43582608435891661124d565b60c43590611331565b7f6e3be9294e58d10b9c8053cfd5e09871b67e442fe394d6b0870d336b9df984a95f80a1005b517f6f7eac26000000000000000000000000000000000000000000000000000000008152fd5b517fa269484a000000000000000000000000000000000000000000000000000000008152fd5b50517f48f5c3ed000000000000000000000000000000000000000000000000000000008152fd5b915034610117576101407ffffffffffffffffffffffffffffffffffffffffffffffffffffffffffffffffc3601126101175780359073ffffffffffffffffffffffffffffffffffffffff9283831683036101175760243593610100807fffffffffffffffffffffffffffffffffffffffffffffffffffffffffffffffbc360112610117578160a43516330361077057600b60559188518160448237208851907f00000000000000000000000000000000000000000000000000000000000000008a83015260208201527f000000000000000000000000000000000000000000000000000000000000000081520160ff8153201630036107485761012435901c7f0000000000000000000000000000000000000000000000000000000000000000014210610721575061071c7fc4474c2790e13695f6d2b6f1d8e164290b55370f87a542fd7711abe0a1bf40ac936106ef84338561124d565b51928392836020909392919373ffffffffffffffffffffffffffffffffffffffff60408201951681520152565b0390a1005b83517f6f7eac26000000000000000000000000000000000000000000000000000000008152fd5b5083517fa269484a000000000000000000000000000000000000000000000000000000008152fd5b8387517f48f5c3ed000000000000000000000000000000000000000000000000000000008152fd5b50823461011757606073ffffffffffffffffffffffffffffffffffffffff916107c036610dbf565b6107d181989498979396929761108b565b013516330361099c57845f5260016020818152835f209267ffffffffffffffff871161037457506108028354610e5b565b601f8111610956575b505f90601f871160011461089057509185807f581dfdecbf49940447908dcd96ba0255b0510d6d1ecd0e78772c356f6446f58e9796959361025a955f93610885575b501b907fffffffffffffffffffffffffffffffffffffffffffffffffffffffffffffffff8760031b1c19161790555192839283611046565b87013592508a61084d565b907fffffffffffffffffffffffffffffffffffffffffffffffffffffffffffffffe08716845f52825f20925f905b82821061093f5750509187969593917f581dfdecbf49940447908dcd96ba0255b0510d6d1ecd0e78772c356f6446f58e9861025a969410610907575b505085811b019055610250565b7fffffffffffffffffffffffffffffffffffffffffffffffffffffffffffffffff60f88960031b161c199087013516905588806108fa565b808685968294968c013581550195019301906108be565b835f52815f20601f880160051c810191838910610992575b601f0160051c019083905b82811061098757505061080b565b5f8155018390610979565b909150819061096e565b90517f48f5c3ed000000000000000000000000000000000000000000000000000000008152fd5b8334610117575f7ffffffffffffffffffffffffffffffffffffffffffffffffffffffffffffffffc36011261011757602090517f00000000000000000000000000000000000000000000000000000000000000008152f35b8334610117575f7ffffffffffffffffffffffffffffffffffffffffffffffffffffffffffffffffc360112610117576020905173ffffffffffffffffffffffffffffffffffffffff7f0000000000000000000000000000000000000000000000000000000000000000168152f35b83903461011757610a9936610d60565b929091610aa58461108b565b610aae8361113b565b602085013503610bce578084013580911c63ffffffff82168101809111610ba2574210610b7a57610ade90611195565b421015610b525773ffffffffffffffffffffffffffffffffffffffff8082850135163314159081610b41575b50610b195761001f83836111dc565b8390517f48f5c3ed000000000000000000000000000000000000000000000000000000008152fd5b905060608401351633141585610b0a565b8390517f6f7eac26000000000000000000000000000000000000000000000000000000008152fd5b8482517f6f7eac26000000000000000000000000000000000000000000000000000000008152fd5b6011867f4e487b71000000000000000000000000000000000000000000000000000000005f525260245ffd5b8482517fabab6bd7000000000000000000000000000000000000000000000000000000008152fd5b843461011757610c0536610d60565b9390927f70a082310000000000000000000000000000000000000000000000000000000081523386820152602090818160248173ffffffffffffffffffffffffffffffffffffffff7f0000000000000000000000000000000000000000000000000000000000000000165afa908115610d56575f91610d29575b5015610d0157610c8e8561108b565b610c978461113b565b8186013503610cd95763ffffffff828601358080941c921c168101809111610ba2574210610b7a57610cc890611195565b421015610b525761001f83836111dc565b8583517fabab6bd7000000000000000000000000000000000000000000000000000000008152fd5b8583517f48f5c3ed000000000000000000000000000000000000000000000000000000008152fd5b90508181813d8311610d4f575b610d408183610eac565b81010312610117575187610c7f565b503d610d36565b84513d5f823e3d90fd5b906101207ffffffffffffffffffffffffffffffffffffffffffffffffffffffffffffffffc830112610117576101007fffffffffffffffffffffffffffffffffffffffffffffffffffffffffffffffdc60043593011261011757602490565b906101407ffffffffffffffffffffffffffffffffffffffffffffffffffffffffffffffffc830112610117576004359167ffffffffffffffff916024358381116101175782602382011215610117578060040135938411610117578260248583010111610117577fffffffffffffffffffffffffffffffffffffffffffffffffffffffffffffffbc602461010092019493011261011757604490565b90600182811c92168015610ea2575b6020831014610e7557565b7f4e487b71000000000000000000000000000000000000000000000000000000005f52602260045260245ffd5b91607f1691610e6a565b90601f7fffffffffffffffffffffffffffffffffffffffffffffffffffffffffffffffe0910116810190811067ffffffffffffffff821117610eed57604052565b7f4e487b71000000000000000000000000000000000000000000000000000000005f52604160045260245ffd5b9060405191825f8254610f2c81610e5b565b908184526020946001916001811690815f14610f9a5750600114610f5c575b505050610f5a92500383610eac565b565b5f90815285812095935091905b818310610f82575050610f5a93508201015f8080610f4b565b85548884018501529485019487945091830191610f69565b915050610f5a9593507fffffffffffffffffffffffffffffffffffffffffffffffffffffffffffffff0091501682840152151560051b8201015f8080610f4b565b5f5b838110610fec5750505f910152565b8181015183820152602001610fdd565b7fffffffffffffffffffffffffffffffffffffffffffffffffffffffffffffffe0601f6040936020845261103f8151809281602088015260208888019101610fdb565b0116010190565b90601f836040947fffffffffffffffffffffffffffffffffffffffffffffffffffffffffffffffe09360208652816020870152868601375f8582860101520116010190565b6055600b73ffffffffffffffffffffffffffffffffffffffff926040516101008092823720604051907f0000000000000000000000000000000000000000000000000000000000000000604083015260208201527f000000000000000000000000000000000000000000000000000000000000000081520160ff81532016300361111157565b60046040517fa269484a000000000000000000000000000000000000000000000000000000008152fd5b6040519060208201908152602082526040820182811067ffffffffffffffff821117610eed57602092816111785f94826040528351928391610fdb565b8101039060025afa1561118a575f5190565b6040513d5f823e3d90fd5b63ffffffff8160e01c9160401c1681018091116111af5790565b7f4e487b71000000000000000000000000000000000000000000000000000000005f52601160045260245ffd5b6020906112447fe346f5c97a360db5188bfa5d3ec5f0583abde420c6ba4d08b6cfe61addc171059373ffffffffffffffffffffffffffffffffffffffff61123460a0830135826060850135168360808601351661124d565b604060c083013592013516611331565b604051908152a1565b73ffffffffffffffffffffffffffffffffffffffff1691908261127457610f5a9250611331565b6040517fa9059cbb00000000000000000000000000000000000000000000000000000000602080830191825273ffffffffffffffffffffffffffffffffffffffff93909316602483015260448083019490945292815290915f916112d9606482610eac565b519082855af11561118a575f513d6113285750803b155b6112f75750565b602490604051907f5274afe70000000000000000000000000000000000000000000000000000000082526004820152fd5b600114156112f0565b5f80809381935af13d156113c0573d67ffffffffffffffff8111610eed576040519061138560207fffffffffffffffffffffffffffffffffffffffffffffffffffffffffffffffe0601f8401160183610eac565b81525f60203d92013e5b1561139657565b60046040517f8a0332d5000000000000000000000000000000000000000000000000000000008152fd5b61138f56fea2646970667358221220a1c89e799cc6f0f54126762e03c11f318eb09ef61b38f7ab6221c2f28632e79064736f6c63430008170033",
  "linkReferences": {},
  "deployedLinkReferences": {},
  "immutableReferences": {
    "3434": [
      {
        "length": 32,
        "start": 2073
      },
      {
        "length": 32,
        "start": 2959
      }
    ],
    "3437": [
      {
        "length": 32,
        "start": 2583
      },
      {
        "length": 32,
        "start": 3352
      }
    ],
    "3440": [
      {
        "length": 32,
        "start": 342
      },
      {
        "length": 32,
        "start": 1144
      },
      {
        "length": 32,
        "start": 2919
      }
    ],
    "3443": [
      {
        "length": 32,
        "start": 1457
      },
      {
        "length": 32,
        "start": 2263
      }
    ],
    "3447": [
      {
        "length": 32,
        "start": 2475
      }
    ]
  },
  "inputSourceName": "project/contracts/STXEscrowFactory.sol",
  "buildInfoId": "solc-0_8_23-e1eb24826fac5efa153b6a93cf1aa3241f14418d"
}